{
  "_format": "hh-move-artifact-1",
  "contractName": "ERC20Mock",
  "sourceName": "contracts/ERC20Mock",
  "abi": [
    {
      "name": "Approval",
      "type": "event",
      "inputs": [
        {
          "type": "address",
          "indexed": true,
          "name": "owner"
        },
        {
          "type": "address",
          "indexed": true,
          "name": "spender"
        },
        {
          "type": "uint256",
          "indexed": false,
          "name": "value"
        }
      ],
      "anonymous": false
    },
    {
      "name": "Transfer",
      "type": "event",
      "inputs": [
        {
          "type": "address",
          "indexed": true,
          "name": "from"
        },
        {
          "type": "address",
          "indexed": true,
          "name": "to"
        },
        {
          "type": "uint256",
          "indexed": false,
          "name": "value"
        }
      ],
      "anonymous": false
    },
    {
      "name": "transfer",
      "type": "function",
      "inputs": [
        {
          "type": "address",
          "name": "to"
        },
        {
          "type": "uint256",
          "name": "amount"
        }
      ],
      "outputs": [
        {
          "type": "bool",
          "name": ""
        }
      ],
      "stateMutability": "nonpayable"
    },
    {
      "name": "allowance",
      "type": "function",
      "inputs": [
        {
          "type": "address",
          "name": "owner"
        },
        {
          "type": "address",
          "name": "spender"
        }
      ],
      "outputs": [
        {
          "type": "uint256",
          "name": ""
        }
      ],
      "stateMutability": "view"
    },
    {
      "name": "approve",
      "type": "function",
      "inputs": [
        {
          "type": "address",
          "name": "spender"
        },
        {
          "type": "uint256",
          "name": "amount"
        }
      ],
      "outputs": [
        {
          "type": "bool",
          "name": ""
        }
      ],
      "stateMutability": "nonpayable"
    },
    {
      "name": "approveInternal",
      "type": "function",
      "inputs": [
        {
          "type": "address",
          "name": "owner"
        },
        {
          "type": "address",
          "name": "spender"
        },
        {
          "type": "uint256",
          "name": "value"
        }
      ],
      "outputs": [],
      "stateMutability": "nonpayable"
    },
    {
      "name": "balanceOf",
      "type": "function",
      "inputs": [
        {
          "type": "address",
          "name": "owner"
        }
      ],
      "outputs": [
        {
          "type": "uint256",
          "name": ""
        }
      ],
      "stateMutability": "view"
    },
    {
      "name": "burn",
      "type": "function",
      "inputs": [
        {
          "type": "address",
          "name": "account"
        },
        {
          "type": "uint256",
          "name": "amount"
        }
      ],
      "outputs": [],
      "stateMutability": "nonpayable"
    },
    {
      "name": "name",
      "type": "function",
      "inputs": [],
      "outputs": [
        {
          "type": "string",
          "name": ""
        }
      ],
      "stateMutability": "view"
    },
    {
      "name": "symbol",
      "type": "function",
      "inputs": [],
      "outputs": [
        {
          "type": "string",
          "name": ""
        }
      ],
      "stateMutability": "view"
    },
    {
      "name": "decimals",
      "type": "function",
      "inputs": [],
      "outputs": [
        {
          "type": "uint8",
          "name": ""
        }
      ],
      "stateMutability": "view"
    },
    {
      "name": "decreaseAllowance",
      "type": "function",
      "inputs": [
        {
          "type": "address",
          "name": "spender"
        },
        {
          "type": "uint256",
          "name": "subtractedValue"
        }
      ],
      "outputs": [
        {
          "type": "bool",
          "name": ""
        }
      ],
      "stateMutability": "nonpayable"
    },
    {
      "name": "increaseAllowance",
      "type": "function",
      "inputs": [
        {
          "type": "address",
          "name": "spender"
        },
        {
          "type": "uint256",
          "name": "addedValue"
        }
      ],
      "outputs": [
        {
          "type": "bool",
          "name": ""
        }
      ],
      "stateMutability": "nonpayable"
    },
    {
      "name": "mint",
      "type": "function",
      "inputs": [
        {
          "type": "address",
          "name": "account"
        },
        {
          "type": "uint256",
          "name": "amount"
        }
      ],
      "outputs": [],
      "stateMutability": "nonpayable"
    },
    {
      "name": "totalSupply",
      "type": "function",
      "inputs": [],
      "outputs": [
        {
          "type": "uint256",
          "name": ""
        }
      ],
      "stateMutability": "view"
    },
    {
      "name": "transferFrom",
      "type": "function",
      "inputs": [
        {
          "type": "address",
          "name": "from"
        },
        {
          "type": "address",
          "name": "to"
        },
        {
          "type": "uint256",
          "name": "amount"
        }
      ],
      "outputs": [
        {
          "type": "bool",
          "name": ""
        }
      ],
      "stateMutability": "nonpayable"
    },
    {
      "name": "transferInternal",
      "type": "function",
      "inputs": [
        {
          "type": "address",
          "name": "from"
        },
        {
          "type": "address",
          "name": "to"
        },
        {
          "type": "uint256",
          "name": "value"
        }
      ],
      "outputs": [],
      "stateMutability": "nonpayable"
    },
    {
      "name": "constructor",
      "type": "constructor",
      "inputs": [
        {
          "type": "string",
          "name": "name"
        },
        {
          "type": "string",
          "name": "symbol"
        },
        {
          "type": "address",
          "name": "initial_account"
        },
        {
          "type": "uint256",
          "name": "initial_balance"
        }
      ],
      "outputs": [],
      "stateMutability": "nonpayable"
    }
  ],
  "bytecode": "0x60a06124c88038038091601f19601f83011684015f52833981019060808183031261043f5780516001600160401b03929083811161043f5781610043918401610669565b926020918284015191821161043f5761005d918401610669565b604083810151939092906001600160a01b038516850361043557606001519261008461072b565b928261008e61072b565b5f805160a08101825285810197885260608101928352608081018281529a8152838101948552815180870190925281516001600160c01b03908116601f60c01b178352600883018051909116600160c51b1790529891979190610224906102179060018c811b916101d4906045818a015360526021820153604360228201536032602382015360306024820153603a6025820153886026820153606d602782015360696028820153606e60298201536074602a82015388602b8201536074602c820153606f602d82015388602e8201536074602f8201536068603082015360656031820153886032820153607a60338201536065603482015360726035820153606f603682015388603782015360616038820153606460398201536064603a8201536072603b8201536065603c8201536073603d8201536073603e82015386151561058f565b8082811c9216906101fe60808401821b83176101f8896101f383610774565b6108a2565b906107fd565b895f518981015f52878152821b5f179301901b17610449565b6101f8846101f383610774565b81855f51606081015f525f8152838682015201525f519182525f7fddf252ad1be2c89b69c2b068fc378daa952ba7f163c4a11628f55a4df523b3ef8484a3015f5230603c1b63a937cc6360dc1b17958660051c84525f8352602484205461042b576024842060019081905590516020829052600160e01b6040525f805160206124a88339815191528054928301905590603c1b640189204cf560dc1b17908051906102e08260c01c928460051c6020525f604052602460202055565b855f5b83811061040357509050610307929150880160051c6020525f604052602460202055565b5160016020819052600160e01b6040525f805160206124a883398151915280549182019055909290603c1b640189204cf560dc1b179280519061035b8260c01c928660051c6020525f604052602460202055565b5f5b8281106103db576103cf8960a08c6103ba8c6103a38d61038c8e8e890160051c6020525f604052602460202055565b516060870160051c6020525f604052602460202055565b516080850160051c6020525f604052602460202055565b51910160051c6020525f604052602460202055565b611bf9806108af5f395ff35b806103fd8580938501015183838a010160051c6020525f604052602460202055565b0161035d565b610423828285010151838388010160051c6020525f604052602460202055565b0186906102e3565b5f195f5260086018fd5b605f5f5260086018fd5b60605f5260086018fd5b909160045b80806002146104ca57806003146104a15760040361044e575061048e61047384610774565b61047c84610774565b9060205260e01b604052602460202090565b5461049a57600261044e565b600361044e565b5050919061047c6104b46104ba93610774565b91610774565b54801561042b5760011b60011790565b50506104d861047384610774565b805461042b575f805160206124a883398151915280546001818101909255603c1b6401aee2973560dc1b17600581901c60208181525f60405260248082209395949193601f87169392909161052c85610716565b95861561056f5782878203955f1995600398815490898b1b9989868c1b01910186038b1b1b1916905501815220948554941b1b01901b191690555b55600361044e565b949350505080935054915f1991601f1991030160031b1b19169055610567565b916004805b80806002146105c857806003146105c0576004036105945750836105b9576002610594565b6003610594565b505050915050565b5f80516020808201835262461bcd60e51b8252818601819052875160c01c602483018190529192918391601f906020600160401b038316908b8385165b838810610650576044975080610626575b5050505001601f19168101030190fd5b60015f1991840360031b1b0191878488010193838551169319920101511617905285808080610616565b8782018301518989016044015296820196889650610605565b81601f8201121561070c578051906020906001600160401b038284011161042b575f5193601f19603f85011685015f5260018060c01b038460c01b8187511617865260088601906001860160c01b908251161790528284830101116107025782905f905b838383106106ea575050116106e157505090565b5f918301015290565b819350828193920101518282880101520183916106cd565b605d5f5260086018fd5b605e5f5260086018fd5b806020036020115f146107265790565b505f90565b5f602052600160e01b6040527f3549ab8d1ca446c83decf4f03b0b6276ca64fb738cc481c116a03094348e567c80549190821561076b575b600183019055565b60029250610763565b8060011c90600181165f146107f857601f9060061c911660208281525f6040526107ad6024822054601f198484030160031b1c92610716565b92836107bb575b5050905090565b60010181526024812054836001146107ee57835f1960018260031b1b01920360031b1c16915b60031b1b17805f806107b4565b90505f1a916107e1565b505190565b8060011c90600181165f1461089e57601f9060061c91169160208281525f604052602481209261082c85610716565b93841561087e578291600191828760249603975f1991829160031b1b01988883549101860360031b888a60031b9a1c811b92868b1b01901b191617905501815220928084549216831b921b1916179055565b9492935050835491601f1991030160031b91821b915f19901b1916179055565b5052565b8181191061042b57019056fe60a05f526004361015610017575b60615f5260086018fd5b5f3560e01c8063a9059cbb14610b96578063dd62ed3e14610b24578063095ea7b314610ad057806356189cb414610a8b57806370a0823114610a375780639dc29fac1461075e57806306fdde031461068957806395d89b41146105a1578063313ce56714610592578063a457c2d7146103ed578063395093511461038157806340c10f19146101c357806318160ddd1461017757806323b872dd1461011b5763222f5be00361000d5734610111576100ce366118f2565b9030603c1b63a937cc6360dc1b17928360051c6020525f60405260246020205415610107576020610105940160011b600117610be6565b005b5f195f5260086018fd5b60635f5260086018fd5b3461011157610129366118f2565b9030603c1b63a937cc6360dc1b17928360051c6020525f6040526024602020541561010757602061016c940160011b6001176101678433848461122b565b610be6565b5f5160018152602090f35b346101115730603c1b63a937cc6360dc1b178060051c6020525f60405260246020205415610107576020906101bc908201600190811b8117811c608001811b17611a4f565b5f51908152f35b34610111576040366003190112610377576101dc611927565b6024359030603c1b63a937cc6360dc1b17916020918360051c83525f6040526024832054156101075761035e6103518285610105970160011b6001176103225f51604081015f5260018060c01b03601f60c01b818351161782526008820190600160c51b9082511617905260458982015360526021820153604360228201536032602382015360306024820153603a6025820153886026820153606d602782015360696028820153606e60298201536074602a82015388602b8201536074602c820153606f602d82015388602e8201536074602f8201536068603082015360656031820153886032820153607a60338201536065603482015360726035820153606f603682015388603782015360616038820153606460398201536064603a8201536072603b8201536065603c8201536073603d8201536073603e8201538315156111aa565b61034c60808260011c0160011b60018316176103468861034183611a4f565b611be2565b90611ac9565b611013565b6103468461034183611a4f565b5f5192606084015f525f84528301526040820152610fd5565b60605f5260086018fd5b346101115760403660031901126103775761039a611927565b30603c1b63a937cc6360dc1b17908160051c6020525f6040526024602020541561010757602061016c920160011b600117906103e56024356103416103e0843387611834565b611a4f565b9133906113ab565b3461011157604036600319011261037757610406611927565b60243530603c1b63a937cc6360dc1b17906020928260051c84525f604052602484205415610107576103e58461058a940160011b6001179261044c6103e0843387611834565b5f80516060810190915280516001600160c01b03908116602560c01b178252600882018051909116601360c11b1790526105859060458982015360526021820153604360228201536032602382015360306024820153603a6025820153886026820153606460278201536065806028830153606360298301536072602a83015380602b8301536061602c8301536073602d83015380602e8301536064602f83015389603083015360616031830153606c6032830153606c6033830153606f60348301536077603583015360616036830153606e60378301536063603883015380603983015389603a8301536062603b83015380603c830153606c603d830153606f603e8301536077603f830153896040830153607a6041830153604282015360726043820153606f6044820153838314848411176111aa565b611bee565b5f5160018152f35b346101115760205f5160128152f35b346101115730603c1b63a937cc6360dc1b1760056020918060051c835260405f604052602490602485205415610107578460019301831b600117938584861695851c01841b94846105f3878317611a4f565b96161761060c575b5f5180610608878261193d565b0390f35b610617859495611991565b935f5195601f19604087011687015f528160051c88525f604052602488205487526008870190860160c01b60018060c01b038251161790525f5b85811061066c575050505050506106089150828080806105fb565b8181018801831c88525f8452848820548782018901528701610651565b346101115730603c1b63a937cc6360dc1b176005906020918160051c83526040915f60405260249060248520541561010757840160011b6001179260016106cf85611a4f565b94166106e3575b5f5180610608868261193d565b6106ec84611991565b925f5194601f19604086011686015f528060051c87525f60405260248720548652600886016001860160c01b60018060c01b038251161790525f5b8581106107415750505050505061060891508280806106d6565b8181018801831c88525f8452848820548782018901528701610727565b3461011157604036600319011261037757610777611927565b6024359030603c1b63a937cc6360dc1b17916020928060051c84525f6040526024842054156101075783610a1f610105955f930160011b600117610a0584516060810186526109f860018060c01b03602160c01b818451161783526008830190601160c11b91828282511617905260458885015360526021850153604360228501536032602385015360306024850153603a6025850153876026850153606260278501536075602885015360726029850153606e602a85015387602b8501536066602c8501536072602d850153606f602e850153606d602f85015387603085015360746031850153606860328501536108d1606594856033820153896034820153607a603582015385603682015360726037820153606f60388201538960398201536061603a8201536064603b8201536064603c8201536072603d82015385603e8201536073603f820153607360408201538c15156111aa565b6108db8b87611013565b936108e585611a4f565b8a51606081018c52805184169094178452600884018051909316602360c01b1790925260458984015360526021840153604360228401536032602384015360306024840153603a6025840153886026840153606260278401536075602884015360726029840153606e602a84015388602b8401536061602c840153606d602d840153606f602e8401536075602f840153606e6030840153607460318401538860328401538060338401536078603484015360636035840153806036840153806037840153606460388401536073603984015388603a8401536062603b8401536061603c840153606c603d8401536061603e840153606e603f840153606360408401536041830153898082149111176111aa565b6103468761058583611a4f565b6001608082821c01811b9116176103468561058583611a4f565b81519360608501835284528301526040820152610fd5565b3461011157602036600319011261037757610a50611927565b30603c1b63a937cc6360dc1b17908160051c6020525f60405260246020205415610107576103e06101bc91602080940160011b600117611013565b3461011157610a99366118f2565b9030603c1b63a937cc6360dc1b17928360051c6020525f60405260246020205415610107576020610105940160011b6001176113ab565b3461011157604036600319011261037757610ae9611927565b30603c1b63a937cc6360dc1b178060051c6020525f604052602460202054156101075761016c9160243591602033910160011b6001176113ab565b3461011157604036600319011261037757610b3d611927565b602435906001600160a01b0382168203610b8c5730603c1b63a937cc6360dc1b178060051c6020525f60405260246020205415610107576020926101bc92846103e0930160011b600117611834565b605f5f5260086018fd5b3461011157604036600319011261037757610baf611927565b30603c1b63a937cc6360dc1b178060051c6020525f604052602460202054156101075761016c9160243591602033910160011b6001175b5f80516060810190915280516001600160c01b03908116602560c01b1782526008820180518216601360c11b9081179091529395949360209392859290919060458684015360526021840153604360228401538585856032958660238201536030968760248301538d603a9182602585015386602685015360749182602786015360729a8b9889602888015360619889938460298a0153606e602a8a01538c60739a8b602b8c01536066602c8c015360659d8b8f602d819e015381602e82015386602f820153606681890153816031820153606f818b0153606d60338201538660348201538a6035820153606860368201538c6037820153866038820153607a60398201538c8c82015381603b820153606f603c82015386603d82015388603e8201536064603f820153606460408201538160418201538c60428201538d60438201538d6044820153610d3b908515156111aa565b5f80516060810190915280518416602360c01b178152600881018051909416600960c21b1790935260458684015360526021840153604360228401538860238401538660248401538a6025840153856026840153896027840153806028840153876029840153606e602a8401538c602b8401536066602c8401538b602d84015380602e84015385602f8401538987840153606f60318401538589840153896033840153606860348401538b6035840153856036840153607a60378401538b6038840153806039840153606f838c015385603b84015387603c8401536064603d8401536064603e840153603f8301538a60408301538b60418301538b6042830153151590610e47916111aa565b610e5091611013565b9c610e5a8e611a4f565b9b5f51809e606082015f528282511617815260080190602760c01b90825116179052818d0160459053605260218e0153848d6043602282015360230153868d84602482015360250153858d83602682015360270153838d82602882015360290153888d606e602a820153602b0153878d6066602c820153602d0153602e8d0153602f8c01538a0153606d60318a01538801606f905360756033890153606e603489015360358801538a6036880153816037880153607860388801536063603988015386015382603b8601536064603c860153603d85015387603e8501536062603f850153806040850153606c60418501536042840153606e60438401536063604484015360458301538088149088101790610f74916111aa565b85610f7e82611a4f565b90610f8891611bee565b610f9191611ac9565b610f9a91611013565b83610fa482611a4f565b90610fae91611be2565b610fb791611ac9565b5f5193606085015f5284528301526040820152610fd390610fd5565b565b602090805190604083820151910151915f519283527fddf252ad1be2c89b69c2b068fc378daa952ba7f163c4a11628f55a4df523b3ef8484a3015f52565b61103a915f5190602082015f52815260011b5f17906001604082821c01811b91161761103d565b90565b909160045b80806002146110a1578060031461109557600403611042575061108261106784611a4f565b61107084611a4f565b9060205260e01b604052602460202090565b5461108e576002611042565b6003611042565b50509161103a91611185565b50506110af61106784611a4f565b8054610107577fe2fcee04280233cc590e9c99ea448e37d8fb575f586826398cc44efbaeb2fb0180546001818101909255603c1b6401aee2973560dc1b17600581901c60208181525f6040526024808220939594601f8716808403959094939092908681111561117e5785965b871561115f575082878203955f1995600398815490898b1b9989868c1b01910186038b1b1b1916905501815220948554941b1b01901b191690555b556003611042565b95505050509250508154905f1990601f190160031b1b19169055611157565b5f9661111c565b61107061119461119a93611a4f565b91611a4f565b5480156101075760011b60011790565b9160049160045b80806002146111e557806003146111dd576004036111b15750836111d65760026111b1565b60036111b1565b505050915050565b82855f518092602080938184015f5262461bcd60e51b845283015261121d815160c01c80928160248601526044958686019101611b82565b601f01601f19168101030190fd5b5f9360045b808060021461128a578060031461128157806004146112585760050361123057505050505050565b5050935061126a6103e0848484611834565b935f19851461127a576002611230565b6003611230565b50506005611230565b50505f80516040810190915280516001600160c01b03908116601d60c01b178252600882018051909116600f60c11b17905261138f9060206045818301536052602183015360436022830153603290816023840153603091826024850153603a8060258601538260268601536069928360278701536074606e93846028890153607360298901536075602a890153606680602b8a0153602c89015385602d89015360639586602e8a0153602f8901536065809789015384603189015387015360338601536061806034870153606c8060358801536036870153606f6037870153607760388701536039860153840153603b830153603c820153828714838811176111aa565b6113a461139c8287611bee565b8585856113ab565b6005611230565b9092915f905f5194604086015f528552602085015260045b80806002146117ad578060031461175f57806004146114bb57806005146114665780600614611443576007036113c357505050816020809351910151908260405f51606081015f52838152848782015201525f519283527f8c5be1e5ebec7d5bd14f71427d1e84f3dd0314c0f7b2291e5b200ac8c7c3b9258484a3015f52565b5061145f90508361145a6020870160011b84611185565b611ac9565b60076113c3565b506001905061147c61106760208701831b611a4f565b908154610107576020818152600160e01b6040526024902080549182019055603c1b6401aee2973560dc1b17906114b38583611ae2565b5560076113c3565b505083515f80516060810190915280516001600160c01b03908116600960c21b178252600882018051909116602560c01b1790526115f69115156045602083015360526021830153604360228301536032602383015360306024830153603a6025830153602060268301536061602783015360706028830153607060298301536072602a830153606f602b8301536076602c8301536065602d8301536020602e8301536066602f83015360726030830153606f6031830153606d60328301536020603383015360746034830153606860358301536065603683015360206037830153607a6038830153606560398301536072603a830153606f603b8301536020603c8301536061603d8301536064603e8301536064603f830153607260408301536065604183015360736042830153607360438301536111aa565b6020848101515f80516060810190915280516001600160c01b03908116601160c11b178252600882018051909116602360c01b17905261172792909115159060459083015360526021830153604360228301536032602383015360306024830153603a6025830153602060268301536061602783015360706028830153607060298301536072602a830153606f602b8301536076602c8301536065602d8301536020602e8301536074602f830153606f60308301536020603183015360746032830153606860338301536065603483015360206035830153607a60368301536065603783015360726038830153606f60398301536020603a8301536061603b8301536064603c8301536064603d8301536072603e8301536065603f83015360736040830153607360418301536111aa565b61174c600161107061173a87831b611a4f565b91606086821c01811b90861617611a4f565b546117585760026113c3565b60036113c3565b505050600161179a6117915f61178487851b8217606087871c01861b86881617611185565b9360208801901b17611a4f565b61107083611a4f565b546117a65760056113c3565b60066113c3565b505061175860016117bc611a06565b9086811b90606086821c01811b908616175b6110706111946117dd93611a4f565b80546101075760016020819052600160e01b6040527fe2fcee04280233cc590e9c99ea448e37d8fb575f586826398cc44efbaeb2fb0180549182019055603c1b63e0373b2560dd1b17916118319083611ae2565b55565b929190915f5192604084015f5283526020830191825260045b80806002146118cd578060031461189e5760040361184d575061188b600161107061187986831b611a4f565b91606088821c01811b90881617611a4f565b5461189757600261184d565b600361184d565b50909361103a936001935f9350916118c491851b9085811690861c606001861b17611185565b921b179061103d565b505061189760016118dc611a06565b9085811b90606088821c01811b908816176117ce565b6060906003190112610377576001600160a01b03906004358281168103610b8c57916024359081168103610b8c579060443590565b600435906001600160a01b0382168203610b8c57565b60409160208252611960815160c01c809281602086015260208686019101611b82565b601f01601f1916010190565b8160011461198a575f1960018360031b1b019160200360031b1c1690565b90505f1a90565b90601f8260051c921691806020525f6040526024602020549267ffffffffffffffff8160200394600719860160031b1c16936008115f146119fe5760171901905b816119db575050565b60019093919293016020526119f58260246020205461196c565b9160031b1b1790565b505f906119d2565b5f602052600160e01b6040527f3549ab8d1ca446c83decf4f03b0b6276ca64fb738cc481c116a03094348e567c805491908215611a46575b600183019055565b60029250611a3e565b8060011c90600181165f14611ac45760061c60208181525f60405260248120549192601f16808203601f19810160031b9390931c92821115611abc57925b83611a9a575b5050905090565b6024611aae9260018693018152205461196c565b9160031b1b17805f80611a93565b505f92611a8d565b505190565b600181811c911615611adf5790610fd391611ae2565b52565b601f8160051c91169160208281525f6040526024812092848203938483115f14611b7b5785945b8515611b5b57508291600191828760249603975f1991829160031b1b01988883549101860360031b888a60031b9a1c811b92868b1b01901b191617905501815220928084549216831b921b1916179055565b93945094505050825490601f190160031b91821b915f19901b1916179055565b5f94611b09565b919091601f8216805f5b601f1985168110611bcf5750611ba3575b50505050565b60015f199160200360031b1b0191601f191680930192828451169219910151161790525f808080611b9d565b8381015186820152829150602001611b8c565b81811910610107570190565b81811061010757039056e2fcee04280233cc590e9c99ea448e37d8fb575f586826398cc44efbaeb2fb01",
  "linkReferences": {},
  "deployedLinkReferences": {}
}