{"abi":[{"type":"constructor","inputs":[],"stateMutability":"nonpayable"},{"type":"receive","stateMutability":"payable"},{"type":"function","name":"MESSENGER","inputs":[],"outputs":[{"name":"","type":"address","internalType":"contract CrossDomainMessenger"}],"stateMutability":"view"},{"type":"function","name":"OTHER_BRIDGE","inputs":[],"outputs":[{"name":"","type":"address","internalType":"contract StandardBridge"}],"stateMutability":"view"},{"type":"function","name":"bridgeERC20","inputs":[{"name":"_localToken","type":"address","internalType":"address"},{"name":"_remoteToken","type":"address","internalType":"address"},{"name":"_amount","type":"uint256","internalType":"uint256"},{"name":"_minGasLimit","type":"uint32","internalType":"uint32"},{"name":"_extraData","type":"bytes","internalType":"bytes"}],"outputs":[],"stateMutability":"nonpayable"},{"type":"function","name":"bridgeERC20To","inputs":[{"name":"_localToken","type":"address","internalType":"address"},{"name":"_remoteToken","type":"address","internalType":"address"},{"name":"_to","type":"address","internalType":"address"},{"name":"_amount","type":"uint256","internalType":"uint256"},{"name":"_minGasLimit","type":"uint32","internalType":"uint32"},{"name":"_extraData","type":"bytes","internalType":"bytes"}],"outputs":[],"stateMutability":"nonpayable"},{"type":"function","name":"bridgeETH","inputs":[{"name":"_minGasLimit","type":"uint32","internalType":"uint32"},{"name":"_extraData","type":"bytes","internalType":"bytes"}],"outputs":[],"stateMutability":"payable"},{"type":"function","name":"bridgeETHTo","inputs":[{"name":"_to","type":"address","internalType":"address"},{"name":"_minGasLimit","type":"uint32","internalType":"uint32"},{"name":"_extraData","type":"bytes","internalType":"bytes"}],"outputs":[],"stateMutability":"payable"},{"type":"function","name":"deposits","inputs":[{"name":"","type":"address","internalType":"address"},{"name":"","type":"address","internalType":"address"}],"outputs":[{"name":"","type":"uint256","internalType":"uint256"}],"stateMutability":"view"},{"type":"function","name":"finalizeBridgeERC20","inputs":[{"name":"_localToken","type":"address","internalType":"address"},{"name":"_remoteToken","type":"address","internalType":"address"},{"name":"_from","type":"address","internalType":"address"},{"name":"_to","type":"address","internalType":"address"},{"name":"_amount","type":"uint256","internalType":"uint256"},{"name":"_extraData","type":"bytes","internalType":"bytes"}],"outputs":[],"stateMutability":"nonpayable"},{"type":"function","name":"finalizeBridgeETH","inputs":[{"name":"_from","type":"address","internalType":"address"},{"name":"_to","type":"address","internalType":"address"},{"name":"_amount","type":"uint256","internalType":"uint256"},{"name":"_extraData","type":"bytes","internalType":"bytes"}],"outputs":[],"stateMutability":"payable"},{"type":"function","name":"initialize","inputs":[{"name":"_otherBridge","type":"address","internalType":"contract StandardBridge"}],"outputs":[],"stateMutability":"nonpayable"},{"type":"function","name":"l1TokenBridge","inputs":[],"outputs":[{"name":"","type":"address","internalType":"address"}],"stateMutability":"view"},{"type":"function","name":"messenger","inputs":[],"outputs":[{"name":"","type":"address","internalType":"contract CrossDomainMessenger"}],"stateMutability":"view"},{"type":"function","name":"otherBridge","inputs":[],"outputs":[{"name":"","type":"address","internalType":"contract StandardBridge"}],"stateMutability":"view"},{"type":"function","name":"paused","inputs":[],"outputs":[{"name":"","type":"bool","internalType":"bool"}],"stateMutability":"view"},{"type":"function","name":"version","inputs":[],"outputs":[{"name":"","type":"string","internalType":"string"}],"stateMutability":"view"},{"type":"function","name":"withdraw","inputs":[{"name":"_l2Token","type":"address","internalType":"address"},{"name":"_amount","type":"uint256","internalType":"uint256"},{"name":"_minGasLimit","type":"uint32","internalType":"uint32"},{"name":"_extraData","type":"bytes","internalType":"bytes"}],"outputs":[],"stateMutability":"payable"},{"type":"function","name":"withdrawTo","inputs":[{"name":"_l2Token","type":"address","internalType":"address"},{"name":"_to","type":"address","internalType":"address"},{"name":"_amount","type":"uint256","internalType":"uint256"},{"name":"_minGasLimit","type":"uint32","internalType":"uint32"},{"name":"_extraData","type":"bytes","internalType":"bytes"}],"outputs":[],"stateMutability":"payable"},{"type":"event","name":"DepositFinalized","inputs":[{"name":"l1Token","type":"address","indexed":true,"internalType":"address"},{"name":"l2Token","type":"address","indexed":true,"internalType":"address"},{"name":"from","type":"address","indexed":true,"internalType":"address"},{"name":"to","type":"address","indexed":false,"internalType":"address"},{"name":"amount","type":"uint256","indexed":false,"internalType":"uint256"},{"name":"extraData","type":"bytes","indexed":false,"internalType":"bytes"}],"anonymous":false},{"type":"event","name":"ERC20BridgeFinalized","inputs":[{"name":"localToken","type":"address","indexed":true,"internalType":"address"},{"name":"remoteToken","type":"address","indexed":true,"internalType":"address"},{"name":"from","type":"address","indexed":true,"internalType":"address"},{"name":"to","type":"address","indexed":false,"internalType":"address"},{"name":"amount","type":"uint256","indexed":false,"internalType":"uint256"},{"name":"extraData","type":"bytes","indexed":false,"internalType":"bytes"}],"anonymous":false},{"type":"event","name":"ERC20BridgeInitiated","inputs":[{"name":"localToken","type":"address","indexed":true,"internalType":"address"},{"name":"remoteToken","type":"address","indexed":true,"internalType":"address"},{"name":"from","type":"address","indexed":true,"internalType":"address"},{"name":"to","type":"address","indexed":false,"internalType":"address"},{"name":"amount","type":"uint256","indexed":false,"internalType":"uint256"},{"name":"extraData","type":"bytes","indexed":false,"internalType":"bytes"}],"anonymous":false},{"type":"event","name":"ETHBridgeFinalized","inputs":[{"name":"from","type":"address","indexed":true,"internalType":"address"},{"name":"to","type":"address","indexed":true,"internalType":"address"},{"name":"amount","type":"uint256","indexed":false,"internalType":"uint256"},{"name":"extraData","type":"bytes","indexed":false,"internalType":"bytes"}],"anonymous":false},{"type":"event","name":"ETHBridgeInitiated","inputs":[{"name":"from","type":"address","indexed":true,"internalType":"address"},{"name":"to","type":"address","indexed":true,"internalType":"address"},{"name":"amount","type":"uint256","indexed":false,"internalType":"uint256"},{"name":"extraData","type":"bytes","indexed":false,"internalType":"bytes"}],"anonymous":false},{"type":"event","name":"Initialized","inputs":[{"name":"version","type":"uint8","indexed":false,"internalType":"uint8"}],"anonymous":false},{"type":"event","name":"WithdrawalInitiated","inputs":[{"name":"l1Token","type":"address","indexed":true,"internalType":"address"},{"name":"l2Token","type":"address","indexed":true,"internalType":"address"},{"name":"from","type":"address","indexed":true,"internalType":"address"},{"name":"to","type":"address","indexed":false,"internalType":"address"},{"name":"amount","type":"uint256","indexed":false,"internalType":"uint256"},{"name":"extraData","type":"bytes","indexed":false,"internalType":"bytes"}],"anonymous":false}],"bytecode":{"object":"0x60806040523480156200001157600080fd5b506200001e600062000024565b62000217565b600054610100900460ff1615808015620000455750600054600160ff909116105b8062000075575062000062306200016d60201b620004531760201c565b15801562000075575060005460ff166001145b620000de5760405162461bcd60e51b815260206004820152602e60248201527f496e697469616c697a61626c653a20636f6e747261637420697320616c72656160448201526d191e481a5b9a5d1a585b1a5e995960921b60648201526084015b60405180910390fd5b6000805460ff19166001179055801562000102576000805461ff0019166101001790555b62000122734200000000000000000000000000000000000007836200017c565b801562000169576000805461ff0019169055604051600181527f7f26b83ff96e1f2b6a682f133852f6798a09c465da95921460cefb38474024989060200160405180910390a15b5050565b6001600160a01b03163b151590565b600054610100900460ff16620001e95760405162461bcd60e51b815260206004820152602b60248201527f496e697469616c697a61626c653a20636f6e7472616374206973206e6f74206960448201526a6e697469616c697a696e6760a81b6064820152608401620000d5565b600380546001600160a01b039384166001600160a01b03199182161790915560048054929093169116179055565b612dc680620002276000396000f3fe6080604052600436106101125760003560e01c80635c975abb116100a5578063927ede2d11610074578063c4d66de811610059578063c4d66de8146103f3578063c89701a214610413578063e11013dd1461044057600080fd5b8063927ede2d146103b5578063a3a79548146103e057600080fd5b80635c975abb146103335780637f46ddb21461023f578063870876231461034f5780638f601f661461036f57600080fd5b806336c717c1116100e157806336c717c11461023f5780633cb747bf14610290578063540abf73146102bd57806354fd4d50146102dd57600080fd5b80630166a07a146101e657806309fc8843146102065780631635f5fd1461021957806332b7006d1461022c57600080fd5b366101e157333b156101ab576040517f08c379a000000000000000000000000000000000000000000000000000000000815260206004820152603760248201527f5374616e646172644272696467653a2066756e6374696f6e2063616e206f6e6c60448201527f792062652063616c6c65642066726f6d20616e20454f4100000000000000000060648201526084015b60405180910390fd5b6101df73deaddeaddeaddeaddeaddeaddeaddeaddead000033333462030d406040518060200160405280600081525061046f565b005b600080fd5b3480156101f257600080fd5b506101df610201366004612784565b61054a565b6101df610214366004612835565b6108ec565b6101df610227366004612888565b6109c3565b6101df61023a3660046128fb565b610eaa565b34801561024b57600080fd5b5060045473ffffffffffffffffffffffffffffffffffffffff165b60405173ffffffffffffffffffffffffffffffffffffffff90911681526020015b60405180910390f35b34801561029c57600080fd5b506003546102669073ffffffffffffffffffffffffffffffffffffffff1681565b3480156102c957600080fd5b506101df6102d836600461294f565b611019565b3480156102e957600080fd5b506103266040518060400160405280600681526020017f312e31302e30000000000000000000000000000000000000000000000000000081525081565b6040516102879190612a3c565b34801561033f57600080fd5b5060405160008152602001610287565b34801561035b57600080fd5b506101df61036a366004612a4f565b61105e565b34801561037b57600080fd5b506103a761038a366004612ad2565b600260209081526000928352604080842090915290825290205481565b604051908152602001610287565b3480156103c157600080fd5b5060035473ffffffffffffffffffffffffffffffffffffffff16610266565b6101df6103ee366004612a4f565b611132565b3480156103ff57600080fd5b506101df61040e366004612b0b565b61120b565b34801561041f57600080fd5b506004546102669073ffffffffffffffffffffffffffffffffffffffff1681565b6101df61044e366004612b28565b6113b4565b73ffffffffffffffffffffffffffffffffffffffff163b151590565b7fffffffffffffffffffffffff215221522152215221522152215221522153000073ffffffffffffffffffffffffffffffffffffffff8716016104be576104b985858585856113fd565b610542565b60008673ffffffffffffffffffffffffffffffffffffffff1663c01e1bd66040518163ffffffff1660e01b8152600401602060405180830381865afa15801561050b573d6000803e3d6000fd5b505050506040513d601f19601f8201168201806040525081019061052f9190612b8b565b90506105408782888888888861165c565b505b505050505050565b60035473ffffffffffffffffffffffffffffffffffffffff163314801561061d575060048054600354604080517f6e296e45000000000000000000000000000000000000000000000000000000008152905173ffffffffffffffffffffffffffffffffffffffff938416949390921692636e296e459282820192602092908290030181865afa1580156105e1573d6000803e3d6000fd5b505050506040513d601f19601f820116820180604052508101906106059190612b8b565b73ffffffffffffffffffffffffffffffffffffffff16145b6106cf576040517f08c379a000000000000000000000000000000000000000000000000000000000815260206004820152604160248201527f5374616e646172644272696467653a2066756e6374696f6e2063616e206f6e6c60448201527f792062652063616c6c65642066726f6d20746865206f7468657220627269646760648201527f6500000000000000000000000000000000000000000000000000000000000000608482015260a4016101a2565b6106d887611a15565b15610826576106e78787611a77565b610799576040517f08c379a000000000000000000000000000000000000000000000000000000000815260206004820152604a60248201527f5374616e646172644272696467653a2077726f6e672072656d6f746520746f6b60448201527f656e20666f72204f7074696d69736d204d696e7461626c65204552433230206c60648201527f6f63616c20746f6b656e00000000000000000000000000000000000000000000608482015260a4016101a2565b6040517f40c10f1900000000000000000000000000000000000000000000000000000000815273ffffffffffffffffffffffffffffffffffffffff8581166004830152602482018590528816906340c10f1990604401600060405180830381600087803b15801561080957600080fd5b505af115801561081d573d6000803e3d6000fd5b505050506108a8565b73ffffffffffffffffffffffffffffffffffffffff8088166000908152600260209081526040808320938a1683529290522054610864908490612bd7565b73ffffffffffffffffffffffffffffffffffffffff8089166000818152600260209081526040808320948c16835293905291909120919091556108a8908585611b97565b610540878787878787878080601f016020809104026020016040519081016040528093929190818152602001838380828437600092019190915250611c6b92505050565b333b1561097b576040517f08c379a000000000000000000000000000000000000000000000000000000000815260206004820152603760248201527f5374616e646172644272696467653a2066756e6374696f6e2063616e206f6e6c60448201527f792062652063616c6c65642066726f6d20616e20454f4100000000000000000060648201526084016101a2565b6109be3333348686868080601f0160208091040260200160405190810160405280939291908181526020018383808284376000920191909152506113fd92505050565b505050565b60035473ffffffffffffffffffffffffffffffffffffffff1633148015610a96575060048054600354604080517f6e296e45000000000000000000000000000000000000000000000000000000008152905173ffffffffffffffffffffffffffffffffffffffff938416949390921692636e296e459282820192602092908290030181865afa158015610a5a573d6000803e3d6000fd5b505050506040513d601f19601f82011682018060405250810190610a7e9190612b8b565b73ffffffffffffffffffffffffffffffffffffffff16145b610b48576040517f08c379a000000000000000000000000000000000000000000000000000000000815260206004820152604160248201527f5374616e646172644272696467653a2066756e6374696f6e2063616e206f6e6c60448201527f792062652063616c6c65642066726f6d20746865206f7468657220627269646760648201527f6500000000000000000000000000000000000000000000000000000000000000608482015260a4016101a2565b610b50611cf9565b15610bdd576040517f08c379a000000000000000000000000000000000000000000000000000000000815260206004820152603760248201527f5374616e646172644272696467653a2063616e6e6f742062726964676520455460448201527f48207769746820637573746f6d2067617320746f6b656e00000000000000000060648201526084016101a2565b823414610c6c576040517f08c379a000000000000000000000000000000000000000000000000000000000815260206004820152603a60248201527f5374616e646172644272696467653a20616d6f756e742073656e7420646f657360448201527f206e6f74206d6174636820616d6f756e7420726571756972656400000000000060648201526084016101a2565b3073ffffffffffffffffffffffffffffffffffffffff851603610d11576040517f08c379a000000000000000000000000000000000000000000000000000000000815260206004820152602360248201527f5374616e646172644272696467653a2063616e6e6f742073656e6420746f207360448201527f656c66000000000000000000000000000000000000000000000000000000000060648201526084016101a2565b60035473ffffffffffffffffffffffffffffffffffffffff90811690851603610dbc576040517f08c379a000000000000000000000000000000000000000000000000000000000815260206004820152602860248201527f5374616e646172644272696467653a2063616e6e6f742073656e6420746f206d60448201527f657373656e67657200000000000000000000000000000000000000000000000060648201526084016101a2565b610dfe85858585858080601f016020809104026020016040519081016040528093929190818152602001838380828437600092019190915250611d3892505050565b6000610e1b855a8660405180602001604052806000815250611dd9565b905080610542576040517f08c379a000000000000000000000000000000000000000000000000000000000815260206004820152602360248201527f5374616e646172644272696467653a20455448207472616e736665722066616960448201527f6c6564000000000000000000000000000000000000000000000000000000000060648201526084016101a2565b333b15610f39576040517f08c379a000000000000000000000000000000000000000000000000000000000815260206004820152603760248201527f5374616e646172644272696467653a2066756e6374696f6e2063616e206f6e6c60448201527f792062652063616c6c65642066726f6d20616e20454f4100000000000000000060648201526084016101a2565b610f41611cf9565b15610fce576040517f08c379a000000000000000000000000000000000000000000000000000000000815260206004820152603560248201527f4c325374616e646172644272696467653a206e6f7420737570706f727465642060448201527f7769746820637573746f6d2067617320746f6b656e000000000000000000000060648201526084016101a2565b611012853333878787878080601f01602080910402602001604051908101604052809392919081815260200183838082843760009201919091525061046f92505050565b5050505050565b61054087873388888888888080601f01602080910402602001604051908101604052809392919081815260200183838082843760009201919091525061165c92505050565b333b156110ed576040517f08c379a000000000000000000000000000000000000000000000000000000000815260206004820152603760248201527f5374616e646172644272696467653a2066756e6374696f6e2063616e206f6e6c60448201527f792062652063616c6c65642066726f6d20616e20454f4100000000000000000060648201526084016101a2565b61054286863333888888888080601f01602080910402602001604051908101604052809392919081815260200183838082843760009201919091525061165c92505050565b61113a611cf9565b156111c7576040517f08c379a000000000000000000000000000000000000000000000000000000000815260206004820152603560248201527f4c325374616e646172644272696467653a206e6f7420737570706f727465642060448201527f7769746820637573746f6d2067617320746f6b656e000000000000000000000060648201526084016101a2565b610542863387878787878080601f01602080910402602001604051908101604052809392919081815260200183838082843760009201919091525061046f92505050565b600054610100900460ff161580801561122b5750600054600160ff909116105b806112455750303b158015611245575060005460ff166001145b6112d1576040517f08c379a000000000000000000000000000000000000000000000000000000000815260206004820152602e60248201527f496e697469616c697a61626c653a20636f6e747261637420697320616c72656160448201527f647920696e697469616c697a656400000000000000000000000000000000000060648201526084016101a2565b600080547fffffffffffffffffffffffffffffffffffffffffffffffffffffffffffffff00166001179055801561132f57600080547fffffffffffffffffffffffffffffffffffffffffffffffffffffffffffff00ff166101001790555b61134d73420000000000000000000000000000000000000783611df3565b80156113b057600080547fffffffffffffffffffffffffffffffffffffffffffffffffffffffffffff00ff169055604051600181527f7f26b83ff96e1f2b6a682f133852f6798a09c465da95921460cefb38474024989060200160405180910390a15b5050565b6113f73385348686868080601f0160208091040260200160405190810160405280939291908181526020018383808284376000920191909152506113fd92505050565b50505050565b611405611cf9565b15611492576040517f08c379a000000000000000000000000000000000000000000000000000000000815260206004820152603760248201527f5374616e646172644272696467653a2063616e6e6f742062726964676520455460448201527f48207769746820637573746f6d2067617320746f6b656e00000000000000000060648201526084016101a2565b823414611521576040517f08c379a000000000000000000000000000000000000000000000000000000000815260206004820152603e60248201527f5374616e646172644272696467653a206272696467696e6720455448206d757360448201527f7420696e636c7564652073756666696369656e74204554482076616c7565000060648201526084016101a2565b61152d85858584611edd565b60035460045460405173ffffffffffffffffffffffffffffffffffffffff92831692633dbb202b9287929116907f1635f5fd0000000000000000000000000000000000000000000000000000000090611590908b908b9086908a90602401612bee565b604080517fffffffffffffffffffffffffffffffffffffffffffffffffffffffffffffffe08184030181529181526020820180517bffffffffffffffffffffffffffffffffffffffffffffffffffffffff167fffffffff000000000000000000000000000000000000000000000000000000009485161790525160e086901b909216825261162392918890600401612c37565b6000604051808303818588803b15801561163c57600080fd5b505af1158015611650573d6000803e3d6000fd5b50505050505050505050565b34156116ea576040517f08c379a000000000000000000000000000000000000000000000000000000000815260206004820152602160248201527f5374616e646172644272696467653a2063616e6e6f742073656e642076616c7560448201527f650000000000000000000000000000000000000000000000000000000000000060648201526084016101a2565b6116f387611a15565b15611841576117028787611a77565b6117b4576040517f08c379a000000000000000000000000000000000000000000000000000000000815260206004820152604a60248201527f5374616e646172644272696467653a2077726f6e672072656d6f746520746f6b60448201527f656e20666f72204f7074696d69736d204d696e7461626c65204552433230206c60648201527f6f63616c20746f6b656e00000000000000000000000000000000000000000000608482015260a4016101a2565b6040517f9dc29fac00000000000000000000000000000000000000000000000000000000815273ffffffffffffffffffffffffffffffffffffffff868116600483015260248201859052881690639dc29fac90604401600060405180830381600087803b15801561182457600080fd5b505af1158015611838573d6000803e3d6000fd5b505050506118d5565b61186373ffffffffffffffffffffffffffffffffffffffff8816863086611f7e565b73ffffffffffffffffffffffffffffffffffffffff8088166000908152600260209081526040808320938a16835292905220546118a1908490612c7c565b73ffffffffffffffffffffffffffffffffffffffff8089166000908152600260209081526040808320938b16835292905220555b6118e3878787878786611fdc565b60035460045460405173ffffffffffffffffffffffffffffffffffffffff92831692633dbb202b9216907f0166a07a0000000000000000000000000000000000000000000000000000000090611947908b908d908c908c908c908b90602401612c94565b604080517fffffffffffffffffffffffffffffffffffffffffffffffffffffffffffffffe08184030181529181526020820180517bffffffffffffffffffffffffffffffffffffffffffffffffffffffff167fffffffff000000000000000000000000000000000000000000000000000000009485161790525160e085901b90921682526119da92918790600401612c37565b600060405180830381600087803b1580156119f457600080fd5b505af1158015611a08573d6000803e3d6000fd5b5050505050505050505050565b6000611a41827f1d1d8b630000000000000000000000000000000000000000000000000000000061206a565b80611a715750611a71827fec4fc8e30000000000000000000000000000000000000000000000000000000061206a565b92915050565b6000611aa3837f1d1d8b630000000000000000000000000000000000000000000000000000000061206a565b15611b4c578273ffffffffffffffffffffffffffffffffffffffff1663c01e1bd66040518163ffffffff1660e01b8152600401602060405180830381865afa158015611af3573d6000803e3d6000fd5b505050506040513d601f19601f82011682018060405250810190611b179190612b8b565b73ffffffffffffffffffffffffffffffffffffffff168273ffffffffffffffffffffffffffffffffffffffff16149050611a71565b8273ffffffffffffffffffffffffffffffffffffffff1663d6c0b2c46040518163ffffffff1660e01b8152600401602060405180830381865afa158015611af3573d6000803e3d6000fd5b60405173ffffffffffffffffffffffffffffffffffffffff83166024820152604481018290526109be9084907fa9059cbb00000000000000000000000000000000000000000000000000000000906064015b604080517fffffffffffffffffffffffffffffffffffffffffffffffffffffffffffffffe08184030181529190526020810180517bffffffffffffffffffffffffffffffffffffffffffffffffffffffff167fffffffff000000000000000000000000000000000000000000000000000000009093169290921790915261208d565b8373ffffffffffffffffffffffffffffffffffffffff168673ffffffffffffffffffffffffffffffffffffffff168673ffffffffffffffffffffffffffffffffffffffff167fb0444523268717a02698be47d0803aa7468c00acbed2f8bd93a0459cde61dd89868686604051611ce393929190612cef565b60405180910390a4610542868686868686612199565b600080611d04612221565b5073ffffffffffffffffffffffffffffffffffffffff1673eeeeeeeeeeeeeeeeeeeeeeeeeeeeeeeeeeeeeeee141592915050565b8373ffffffffffffffffffffffffffffffffffffffff1673deaddeaddeaddeaddeaddeaddeaddeaddead000073ffffffffffffffffffffffffffffffffffffffff16600073ffffffffffffffffffffffffffffffffffffffff167fb0444523268717a02698be47d0803aa7468c00acbed2f8bd93a0459cde61dd89868686604051611dc593929190612cef565b60405180910390a46113f7848484846122af565b600080600080845160208601878a8af19695505050505050565b600054610100900460ff16611e8a576040517f08c379a000000000000000000000000000000000000000000000000000000000815260206004820152602b60248201527f496e697469616c697a61626c653a20636f6e7472616374206973206e6f74206960448201527f6e697469616c697a696e6700000000000000000000000000000000000000000060648201526084016101a2565b6003805473ffffffffffffffffffffffffffffffffffffffff9384167fffffffffffffffffffffffff00000000000000000000000000000000000000009182161790915560048054929093169116179055565b8373ffffffffffffffffffffffffffffffffffffffff1673deaddeaddeaddeaddeaddeaddeaddeaddead000073ffffffffffffffffffffffffffffffffffffffff16600073ffffffffffffffffffffffffffffffffffffffff167f73d170910aba9e6d50b102db522b1dbcd796216f5128b445aa2135272886497e868686604051611f6a93929190612cef565b60405180910390a46113f78484848461231c565b60405173ffffffffffffffffffffffffffffffffffffffff808516602483015283166044820152606481018290526113f79085907f23b872dd0000000000000000000000000000000000000000000000000000000090608401611be9565b8373ffffffffffffffffffffffffffffffffffffffff168673ffffffffffffffffffffffffffffffffffffffff168673ffffffffffffffffffffffffffffffffffffffff167f73d170910aba9e6d50b102db522b1dbcd796216f5128b445aa2135272886497e86868660405161205493929190612cef565b60405180910390a461054286868686868661237b565b6000612075836123f3565b801561208657506120868383612457565b9392505050565b60006120ef826040518060400160405280602081526020017f5361666545524332303a206c6f772d6c6576656c2063616c6c206661696c65648152508573ffffffffffffffffffffffffffffffffffffffff166125269092919063ffffffff16565b8051909150156109be578080602001905181019061210d9190612d2d565b6109be576040517f08c379a000000000000000000000000000000000000000000000000000000000815260206004820152602a60248201527f5361666545524332303a204552433230206f7065726174696f6e20646964206e60448201527f6f7420737563636565640000000000000000000000000000000000000000000060648201526084016101a2565b8373ffffffffffffffffffffffffffffffffffffffff168573ffffffffffffffffffffffffffffffffffffffff168773ffffffffffffffffffffffffffffffffffffffff167fd59c65b35445225835c83f50b6ede06a7be047d22e357073e250d9af537518cd86868660405161221193929190612cef565b60405180910390a4505050505050565b60008073420000000000000000000000000000000000001573ffffffffffffffffffffffffffffffffffffffff16634397dfef6040518163ffffffff1660e01b81526004016040805180830381865afa158015612282573d6000803e3d6000fd5b505050506040513d601f19601f820116820180604052508101906122a69190612d4f565b90939092509050565b8273ffffffffffffffffffffffffffffffffffffffff168473ffffffffffffffffffffffffffffffffffffffff167f31b2166ff604fc5672ea5df08a78081d2bc6d746cadce880747f3643d819e83d848460405161230e929190612d84565b60405180910390a350505050565b8273ffffffffffffffffffffffffffffffffffffffff168473ffffffffffffffffffffffffffffffffffffffff167f2849b43074093a05396b6f2a937dee8565b15a48a7b3d4bffb732a5017380af5848460405161230e929190612d84565b8373ffffffffffffffffffffffffffffffffffffffff168573ffffffffffffffffffffffffffffffffffffffff168773ffffffffffffffffffffffffffffffffffffffff167f7ff126db8024424bbfd9826e8ab82ff59136289ea440b04b39a0df1b03b9cabf86868660405161221193929190612cef565b600061241f827f01ffc9a700000000000000000000000000000000000000000000000000000000612457565b8015611a715750612450827fffffffff00000000000000000000000000000000000000000000000000000000612457565b1592915050565b604080517fffffffff000000000000000000000000000000000000000000000000000000008316602480830191909152825180830390910181526044909101909152602080820180517bffffffffffffffffffffffffffffffffffffffffffffffffffffffff167f01ffc9a700000000000000000000000000000000000000000000000000000000178152825160009392849283928392918391908a617530fa92503d9150600051905082801561250f575060208210155b801561251b5750600081115b979650505050505050565b6060612535848460008561253d565b949350505050565b6060824710156125cf576040517f08c379a000000000000000000000000000000000000000000000000000000000815260206004820152602660248201527f416464726573733a20696e73756666696369656e742062616c616e636520666f60448201527f722063616c6c000000000000000000000000000000000000000000000000000060648201526084016101a2565b73ffffffffffffffffffffffffffffffffffffffff85163b61264d576040517f08c379a000000000000000000000000000000000000000000000000000000000815260206004820152601d60248201527f416464726573733a2063616c6c20746f206e6f6e2d636f6e747261637400000060448201526064016101a2565b6000808673ffffffffffffffffffffffffffffffffffffffff1685876040516126769190612d9d565b60006040518083038185875af1925050503d80600081146126b3576040519150601f19603f3d011682016040523d82523d6000602084013e6126b8565b606091505b509150915061251b828286606083156126d2575081612086565b8251156126e25782518084602001fd5b816040517f08c379a00000000000000000000000000000000000000000000000000000000081526004016101a29190612a3c565b73ffffffffffffffffffffffffffffffffffffffff8116811461273857600080fd5b50565b60008083601f84011261274d57600080fd5b50813567ffffffffffffffff81111561276557600080fd5b60208301915083602082850101111561277d57600080fd5b9250929050565b600080600080600080600060c0888a03121561279f57600080fd5b87356127aa81612716565b965060208801356127ba81612716565b955060408801356127ca81612716565b945060608801356127da81612716565b93506080880135925060a088013567ffffffffffffffff8111156127fd57600080fd5b6128098a828b0161273b565b989b979a50959850939692959293505050565b803563ffffffff8116811461283057600080fd5b919050565b60008060006040848603121561284a57600080fd5b6128538461281c565b9250602084013567ffffffffffffffff81111561286f57600080fd5b61287b8682870161273b565b9497909650939450505050565b6000806000806000608086880312156128a057600080fd5b85356128ab81612716565b945060208601356128bb81612716565b935060408601359250606086013567ffffffffffffffff8111156128de57600080fd5b6128ea8882890161273b565b969995985093965092949392505050565b60008060008060006080868803121561291357600080fd5b853561291e81612716565b9450602086013593506129336040870161281c565b9250606086013567ffffffffffffffff8111156128de57600080fd5b600080600080600080600060c0888a03121561296a57600080fd5b873561297581612716565b9650602088013561298581612716565b9550604088013561299581612716565b9450606088013593506129aa6080890161281c565b925060a088013567ffffffffffffffff8111156127fd57600080fd5b60005b838110156129e15781810151838201526020016129c9565b838111156113f75750506000910152565b60008151808452612a0a8160208601602086016129c6565b601f017fffffffffffffffffffffffffffffffffffffffffffffffffffffffffffffffe0169290920160200192915050565b60208152600061208660208301846129f2565b60008060008060008060a08789031215612a6857600080fd5b8635612a7381612716565b95506020870135612a8381612716565b945060408701359350612a986060880161281c565b9250608087013567ffffffffffffffff811115612ab457600080fd5b612ac089828a0161273b565b979a9699509497509295939492505050565b60008060408385031215612ae557600080fd5b8235612af081612716565b91506020830135612b0081612716565b809150509250929050565b600060208284031215612b1d57600080fd5b813561208681612716565b60008060008060608587031215612b3e57600080fd5b8435612b4981612716565b9350612b576020860161281c565b9250604085013567ffffffffffffffff811115612b7357600080fd5b612b7f8782880161273b565b95989497509550505050565b600060208284031215612b9d57600080fd5b815161208681612716565b7f4e487b7100000000000000000000000000000000000000000000000000000000600052601160045260246000fd5b600082821015612be957612be9612ba8565b500390565b600073ffffffffffffffffffffffffffffffffffffffff808716835280861660208401525083604083015260806060830152612c2d60808301846129f2565b9695505050505050565b73ffffffffffffffffffffffffffffffffffffffff84168152606060208201526000612c6660608301856129f2565b905063ffffffff83166040830152949350505050565b60008219821115612c8f57612c8f612ba8565b500190565b600073ffffffffffffffffffffffffffffffffffffffff80891683528088166020840152808716604084015280861660608401525083608083015260c060a0830152612ce360c08301846129f2565b98975050505050505050565b73ffffffffffffffffffffffffffffffffffffffff84168152826020820152606060408201526000612d2460608301846129f2565b95945050505050565b600060208284031215612d3f57600080fd5b8151801515811461208657600080fd5b60008060408385031215612d6257600080fd5b8251612d6d81612716565b602084015190925060ff81168114612b0057600080fd5b82815260406020820152600061253560408301846129f2565b60008251612daf8184602087016129c6565b919091019291505056fea164736f6c634300080f000a","linkReferences":{}},"methodIdentifiers":{"MESSENGER()":"927ede2d","OTHER_BRIDGE()":"7f46ddb2","bridgeERC20(address,address,uint256,uint32,bytes)":"87087623","bridgeERC20To(address,address,address,uint256,uint32,bytes)":"540abf73","bridgeETH(uint32,bytes)":"09fc8843","bridgeETHTo(address,uint32,bytes)":"e11013dd","deposits(address,address)":"8f601f66","finalizeBridgeERC20(address,address,address,address,uint256,bytes)":"0166a07a","finalizeBridgeETH(address,address,uint256,bytes)":"1635f5fd","initialize(address)":"c4d66de8","l1TokenBridge()":"36c717c1","messenger()":"3cb747bf","otherBridge()":"c89701a2","paused()":"5c975abb","version()":"54fd4d50","withdraw(address,uint256,uint32,bytes)":"32b7006d","withdrawTo(address,address,uint256,uint32,bytes)":"a3a79548"},"storageLayout":{"storage":[{"astId":43933,"contract":"src/L2/L2StandardBridge.sol:L2StandardBridge","label":"_initialized","offset":0,"slot":"0","type":"t_uint8"},{"astId":43936,"contract":"src/L2/L2StandardBridge.sol:L2StandardBridge","label":"_initializing","offset":1,"slot":"0","type":"t_bool"},{"astId":69996,"contract":"src/L2/L2StandardBridge.sol:L2StandardBridge","label":"spacer_0_2_30","offset":2,"slot":"0","type":"t_bytes30"},{"astId":69999,"contract":"src/L2/L2StandardBridge.sol:L2StandardBridge","label":"spacer_1_0_20","offset":0,"slot":"1","type":"t_address"},{"astId":70006,"contract":"src/L2/L2StandardBridge.sol:L2StandardBridge","label":"deposits","offset":0,"slot":"2","type":"t_mapping(t_address,t_mapping(t_address,t_uint256))"},{"astId":70010,"contract":"src/L2/L2StandardBridge.sol:L2StandardBridge","label":"messenger","offset":0,"slot":"3","type":"t_contract(CrossDomainMessenger)68660"},{"astId":70014,"contract":"src/L2/L2StandardBridge.sol:L2StandardBridge","label":"otherBridge","offset":0,"slot":"4","type":"t_contract(StandardBridge)70776"},{"astId":70019,"contract":"src/L2/L2StandardBridge.sol:L2StandardBridge","label":"__gap","offset":0,"slot":"5","type":"t_array(t_uint256)45_storage"}],"types":{"t_address":{"encoding":"inplace","label":"address","numberOfBytes":"20"},"t_array(t_uint256)45_storage":{"encoding":"inplace","label":"uint256[45]","numberOfBytes":"1440","base":"t_uint256"},"t_bool":{"encoding":"inplace","label":"bool","numberOfBytes":"1"},"t_bytes30":{"encoding":"inplace","label":"bytes30","numberOfBytes":"30"},"t_contract(CrossDomainMessenger)68660":{"encoding":"inplace","label":"contract CrossDomainMessenger","numberOfBytes":"20"},"t_contract(StandardBridge)70776":{"encoding":"inplace","label":"contract StandardBridge","numberOfBytes":"20"},"t_mapping(t_address,t_mapping(t_address,t_uint256))":{"encoding":"mapping","key":"t_address","label":"mapping(address => mapping(address => uint256))","numberOfBytes":"32","value":"t_mapping(t_address,t_uint256)"},"t_mapping(t_address,t_uint256)":{"encoding":"mapping","key":"t_address","label":"mapping(address => uint256)","numberOfBytes":"32","value":"t_uint256"},"t_uint256":{"encoding":"inplace","label":"uint256","numberOfBytes":"32"},"t_uint8":{"encoding":"inplace","label":"uint8","numberOfBytes":"1"}}},"userdoc":{"version":1,"kind":"user","methods":{"MESSENGER()":{"notice":"Getter for messenger contract.         Public getter is legacy and will be removed in the future. Use `messenger` instead."},"OTHER_BRIDGE()":{"notice":"Getter for the other bridge contract.         Public getter is legacy and will be removed in the future. Use `otherBridge` instead."},"bridgeERC20(address,address,uint256,uint32,bytes)":{"notice":"Sends ERC20 tokens to the sender's address on the other chain."},"bridgeERC20To(address,address,address,uint256,uint32,bytes)":{"notice":"Sends ERC20 tokens to a receiver's address on the other chain."},"bridgeETH(uint32,bytes)":{"notice":"Sends ETH to the sender's address on the other chain."},"bridgeETHTo(address,uint32,bytes)":{"notice":"Sends ETH to a receiver's address on the other chain. Note that if ETH is sent to a         smart contract and the call fails, the ETH will be temporarily locked in the         StandardBridge on the other chain until the call is replayed. If the call cannot be         replayed with any amount of gas (call always reverts), then the ETH will be         permanently locked in the StandardBridge on the other chain. ETH will also         be locked if the receiver is the other bridge, because finalizeBridgeETH will revert         in that case."},"constructor":{"notice":"Constructs the L2StandardBridge contract."},"deposits(address,address)":{"notice":"Mapping that stores deposits for a given pair of local and remote tokens."},"finalizeBridgeERC20(address,address,address,address,uint256,bytes)":{"notice":"Finalizes an ERC20 bridge on this chain. Can only be triggered by the other         StandardBridge contract on the remote chain."},"finalizeBridgeETH(address,address,uint256,bytes)":{"notice":"Finalizes an ETH bridge on this chain. Can only be triggered by the other         StandardBridge contract on the remote chain."},"initialize(address)":{"notice":"Initializer."},"messenger()":{"notice":"Messenger contract on this domain."},"otherBridge()":{"notice":"Corresponding bridge on the other domain."},"paused()":{"notice":"This function should return true if the contract is paused.         On L1 this function will check the SuperchainConfig for its paused status.         On L2 this function should be a no-op."}},"events":{"ERC20BridgeFinalized(address,address,address,address,uint256,bytes)":{"notice":"Emitted when an ERC20 bridge is finalized on this chain."},"ERC20BridgeInitiated(address,address,address,address,uint256,bytes)":{"notice":"Emitted when an ERC20 bridge is initiated to the other chain."},"ETHBridgeFinalized(address,address,uint256,bytes)":{"notice":"Emitted when an ETH bridge is finalized on this chain."},"ETHBridgeInitiated(address,address,uint256,bytes)":{"notice":"Emitted when an ETH bridge is initiated to the other chain."}},"notice":"The L2StandardBridge is responsible for transfering ETH and ERC20 tokens between L1 and         L2. In the case that an ERC20 token is native to L2, it will be escrowed within this         contract. If the ERC20 token is native to L1, it will be burnt.         NOTE: this contract is not intended to support all variations of ERC20 tokens. Examples         of some token types that may not be properly supported by this contract include, but are         not limited to: tokens with transfer fees, rebasing tokens, and tokens with blocklists."},"devdoc":{"version":1,"kind":"dev","methods":{"MESSENGER()":{"returns":{"_0":"Contract of the messenger on this domain."}},"OTHER_BRIDGE()":{"returns":{"_0":"Contract of the bridge on the other network."}},"bridgeERC20(address,address,uint256,uint32,bytes)":{"params":{"_amount":"Amount of local tokens to deposit.","_extraData":"Extra data to be sent with the transaction. Note that the recipient will                     not be triggered with this data, but it will be emitted and can be used                     to identify the transaction.","_localToken":"Address of the ERC20 on this chain.","_minGasLimit":"Minimum amount of gas that the bridge can be relayed with.","_remoteToken":"Address of the corresponding token on the remote chain."}},"bridgeERC20To(address,address,address,uint256,uint32,bytes)":{"params":{"_amount":"Amount of local tokens to deposit.","_extraData":"Extra data to be sent with the transaction. Note that the recipient will                     not be triggered with this data, but it will be emitted and can be used                     to identify the transaction.","_localToken":"Address of the ERC20 on this chain.","_minGasLimit":"Minimum amount of gas that the bridge can be relayed with.","_remoteToken":"Address of the corresponding token on the remote chain.","_to":"Address of the receiver."}},"bridgeETH(uint32,bytes)":{"params":{"_extraData":"Extra data to be sent with the transaction. Note that the recipient will                     not be triggered with this data, but it will be emitted and can be used                     to identify the transaction.","_minGasLimit":"Minimum amount of gas that the bridge can be relayed with."}},"bridgeETHTo(address,uint32,bytes)":{"params":{"_extraData":"Extra data to be sent with the transaction. Note that the recipient will                     not be triggered with this data, but it will be emitted and can be used                     to identify the transaction.","_minGasLimit":"Minimum amount of gas that the bridge can be relayed with.","_to":"Address of the receiver."}},"finalizeBridgeERC20(address,address,address,address,uint256,bytes)":{"params":{"_amount":"Amount of the ERC20 being bridged.","_extraData":"Extra data to be sent with the transaction. Note that the recipient will                     not be triggered with this data, but it will be emitted and can be used                     to identify the transaction.","_from":"Address of the sender.","_localToken":"Address of the ERC20 on this chain.","_remoteToken":"Address of the corresponding token on the remote chain.","_to":"Address of the receiver."}},"finalizeBridgeETH(address,address,uint256,bytes)":{"params":{"_amount":"Amount of ETH being bridged.","_extraData":"Extra data to be sent with the transaction. Note that the recipient will                   not be triggered with this data, but it will be emitted and can be used                   to identify the transaction.","_from":"Address of the sender.","_to":"Address of the receiver."}},"initialize(address)":{"params":{"_otherBridge":"Contract for the corresponding bridge on the other chain."}},"l1TokenBridge()":{"returns":{"_0":"Address of the corresponding L1 bridge contract."}},"paused()":{"returns":{"_0":"Whether or not the contract is paused."}},"withdraw(address,uint256,uint32,bytes)":{"params":{"_amount":"Amount of the L2 token to withdraw.","_extraData":"Extra data attached to the withdrawal.","_l2Token":"Address of the L2 token to withdraw.","_minGasLimit":"Minimum gas limit to use for the transaction."}},"withdrawTo(address,address,uint256,uint32,bytes)":{"params":{"_amount":"Amount of the L2 token to withdraw.","_extraData":"Extra data attached to the withdrawal.","_l2Token":"Address of the L2 token to withdraw.","_minGasLimit":"Minimum gas limit to use for the transaction.","_to":"Recipient account on L1."}}},"events":{"DepositFinalized(address,address,address,address,uint256,bytes)":{"params":{"amount":"Amount of the ERC20 deposited.","extraData":"Extra data attached to the deposit.","from":"Address of the depositor.","l1Token":"Address of the token on L1.","l2Token":"Address of the corresponding token on L2.","to":"Address of the recipient on L2."}},"WithdrawalInitiated(address,address,address,address,uint256,bytes)":{"params":{"amount":"Amount of the ERC20 withdrawn.","extraData":"Extra data attached to the withdrawal.","from":"Address of the withdrawer.","l1Token":"Address of the token on L1.","l2Token":"Address of the corresponding token on L2.","to":"Address of the recipient on L1."}}},"title":"L2StandardBridge"},"id":78}