{"abi":[{"type":"constructor","inputs":[],"stateMutability":"nonpayable"},{"type":"receive","stateMutability":"payable"},{"type":"function","name":"balance","inputs":[],"outputs":[{"name":"","type":"uint256","internalType":"uint256"}],"stateMutability":"view"},{"type":"function","name":"depositERC20Transaction","inputs":[{"name":"_to","type":"address","internalType":"address"},{"name":"_mint","type":"uint256","internalType":"uint256"},{"name":"_value","type":"uint256","internalType":"uint256"},{"name":"_gasLimit","type":"uint64","internalType":"uint64"},{"name":"_isCreation","type":"bool","internalType":"bool"},{"name":"_data","type":"bytes","internalType":"bytes"}],"outputs":[],"stateMutability":"nonpayable"},{"type":"function","name":"depositTransaction","inputs":[{"name":"_to","type":"address","internalType":"address"},{"name":"_value","type":"uint256","internalType":"uint256"},{"name":"_gasLimit","type":"uint64","internalType":"uint64"},{"name":"_isCreation","type":"bool","internalType":"bool"},{"name":"_data","type":"bytes","internalType":"bytes"}],"outputs":[],"stateMutability":"payable"},{"type":"function","name":"donateETH","inputs":[],"outputs":[],"stateMutability":"payable"},{"type":"function","name":"finalizeWithdrawalTransaction","inputs":[{"name":"_tx","type":"tuple","internalType":"struct Types.WithdrawalTransaction","components":[{"name":"nonce","type":"uint256","internalType":"uint256"},{"name":"sender","type":"address","internalType":"address"},{"name":"target","type":"address","internalType":"address"},{"name":"value","type":"uint256","internalType":"uint256"},{"name":"gasLimit","type":"uint256","internalType":"uint256"},{"name":"data","type":"bytes","internalType":"bytes"}]}],"outputs":[],"stateMutability":"nonpayable"},{"type":"function","name":"finalizedWithdrawals","inputs":[{"name":"","type":"bytes32","internalType":"bytes32"}],"outputs":[{"name":"","type":"bool","internalType":"bool"}],"stateMutability":"view"},{"type":"function","name":"guardian","inputs":[],"outputs":[{"name":"","type":"address","internalType":"address"}],"stateMutability":"view"},{"type":"function","name":"initialize","inputs":[{"name":"_l2Oracle","type":"address","internalType":"contract L2OutputOracle"},{"name":"_systemConfig","type":"address","internalType":"contract SystemConfig"},{"name":"_superchainConfig","type":"address","internalType":"contract SuperchainConfig"}],"outputs":[],"stateMutability":"nonpayable"},{"type":"function","name":"isOutputFinalized","inputs":[{"name":"_l2OutputIndex","type":"uint256","internalType":"uint256"}],"outputs":[{"name":"","type":"bool","internalType":"bool"}],"stateMutability":"view"},{"type":"function","name":"l2Oracle","inputs":[],"outputs":[{"name":"","type":"address","internalType":"contract L2OutputOracle"}],"stateMutability":"view"},{"type":"function","name":"l2Sender","inputs":[],"outputs":[{"name":"","type":"address","internalType":"address"}],"stateMutability":"view"},{"type":"function","name":"minimumGasLimit","inputs":[{"name":"_byteCount","type":"uint64","internalType":"uint64"}],"outputs":[{"name":"","type":"uint64","internalType":"uint64"}],"stateMutability":"pure"},{"type":"function","name":"params","inputs":[],"outputs":[{"name":"prevBaseFee","type":"uint128","internalType":"uint128"},{"name":"prevBoughtGas","type":"uint64","internalType":"uint64"},{"name":"prevBlockNum","type":"uint64","internalType":"uint64"}],"stateMutability":"view"},{"type":"function","name":"paused","inputs":[],"outputs":[{"name":"paused_","type":"bool","internalType":"bool"}],"stateMutability":"view"},{"type":"function","name":"proveWithdrawalTransaction","inputs":[{"name":"_tx","type":"tuple","internalType":"struct Types.WithdrawalTransaction","components":[{"name":"nonce","type":"uint256","internalType":"uint256"},{"name":"sender","type":"address","internalType":"address"},{"name":"target","type":"address","internalType":"address"},{"name":"value","type":"uint256","internalType":"uint256"},{"name":"gasLimit","type":"uint256","internalType":"uint256"},{"name":"data","type":"bytes","internalType":"bytes"}]},{"name":"_l2OutputIndex","type":"uint256","internalType":"uint256"},{"name":"_outputRootProof","type":"tuple","internalType":"struct Types.OutputRootProof","components":[{"name":"version","type":"bytes32","internalType":"bytes32"},{"name":"stateRoot","type":"bytes32","internalType":"bytes32"},{"name":"messagePasserStorageRoot","type":"bytes32","internalType":"bytes32"},{"name":"latestBlockhash","type":"bytes32","internalType":"bytes32"}]},{"name":"_withdrawalProof","type":"bytes[]","internalType":"bytes[]"}],"outputs":[],"stateMutability":"nonpayable"},{"type":"function","name":"provenWithdrawals","inputs":[{"name":"","type":"bytes32","internalType":"bytes32"}],"outputs":[{"name":"outputRoot","type":"bytes32","internalType":"bytes32"},{"name":"timestamp","type":"uint128","internalType":"uint128"},{"name":"l2OutputIndex","type":"uint128","internalType":"uint128"}],"stateMutability":"view"},{"type":"function","name":"setGasPayingToken","inputs":[{"name":"_token","type":"address","internalType":"address"},{"name":"_decimals","type":"uint8","internalType":"uint8"},{"name":"_name","type":"bytes32","internalType":"bytes32"},{"name":"_symbol","type":"bytes32","internalType":"bytes32"}],"outputs":[],"stateMutability":"nonpayable"},{"type":"function","name":"superchainConfig","inputs":[],"outputs":[{"name":"","type":"address","internalType":"contract SuperchainConfig"}],"stateMutability":"view"},{"type":"function","name":"systemConfig","inputs":[],"outputs":[{"name":"","type":"address","internalType":"contract SystemConfig"}],"stateMutability":"view"},{"type":"function","name":"version","inputs":[],"outputs":[{"name":"","type":"string","internalType":"string"}],"stateMutability":"view"},{"type":"event","name":"Initialized","inputs":[{"name":"version","type":"uint8","indexed":false,"internalType":"uint8"}],"anonymous":false},{"type":"event","name":"TransactionDeposited","inputs":[{"name":"from","type":"address","indexed":true,"internalType":"address"},{"name":"to","type":"address","indexed":true,"internalType":"address"},{"name":"version","type":"uint256","indexed":true,"internalType":"uint256"},{"name":"opaqueData","type":"bytes","indexed":false,"internalType":"bytes"}],"anonymous":false},{"type":"event","name":"WithdrawalFinalized","inputs":[{"name":"withdrawalHash","type":"bytes32","indexed":true,"internalType":"bytes32"},{"name":"success","type":"bool","indexed":false,"internalType":"bool"}],"anonymous":false},{"type":"event","name":"WithdrawalProven","inputs":[{"name":"withdrawalHash","type":"bytes32","indexed":true,"internalType":"bytes32"},{"name":"from","type":"address","indexed":true,"internalType":"address"},{"name":"to","type":"address","indexed":true,"internalType":"address"}],"anonymous":false},{"type":"error","name":"BadTarget","inputs":[]},{"type":"error","name":"CallPaused","inputs":[]},{"type":"error","name":"ContentLengthMismatch","inputs":[]},{"type":"error","name":"EmptyItem","inputs":[]},{"type":"error","name":"GasEstimation","inputs":[]},{"type":"error","name":"InvalidDataRemainder","inputs":[]},{"type":"error","name":"InvalidHeader","inputs":[]},{"type":"error","name":"LargeCalldata","inputs":[]},{"type":"error","name":"NoValue","inputs":[]},{"type":"error","name":"NonReentrant","inputs":[]},{"type":"error","name":"OnlyCustomGasToken","inputs":[]},{"type":"error","name":"OutOfGas","inputs":[]},{"type":"error","name":"SmallGasLimit","inputs":[]},{"type":"error","name":"TransferFailed","inputs":[]},{"type":"error","name":"Unauthorized","inputs":[]},{"type":"error","name":"UnexpectedList","inputs":[]},{"type":"error","name":"UnexpectedString","inputs":[]}],"bytecode":{"object":"0x60806040523480156200001157600080fd5b50620000206000808062000026565b6200028f565b600054610100900460ff1615808015620000475750600054600160ff909116105b806200007757506200006430620001c160201b62001f071760201c565b15801562000077575060005460ff166001145b620000e05760405162461bcd60e51b815260206004820152602e60248201527f496e697469616c697a61626c653a20636f6e747261637420697320616c72656160448201526d191e481a5b9a5d1a585b1a5e995960921b60648201526084015b60405180910390fd5b6000805460ff19166001179055801562000104576000805461ff0019166101001790555b603680546001600160a01b03199081166001600160a01b03878116919091179092556037805490911685831617905560358054610100600160a81b03191661010085841602179055603254166200016a57603280546001600160a01b03191661dead1790555b62000174620001d0565b8015620001bb576000805461ff0019169055604051600181527f7f26b83ff96e1f2b6a682f133852f6798a09c465da95921460cefb38474024989060200160405180910390a15b50505050565b6001600160a01b03163b151590565b600054610100900460ff166200023d5760405162461bcd60e51b815260206004820152602b60248201527f496e697469616c697a61626c653a20636f6e7472616374206973206e6f74206960448201526a6e697469616c697a696e6760a81b6064820152608401620000d7565b600154600160c01b90046001600160401b03166000036200028d5760408051606081018252633b9aca0080825260006020830152436001600160401b031691909201819052600160c01b02176001555b565b615781806200029f6000396000f3fe6080604052600436106101635760003560e01c80638c3152e9116100c0578063b69ef8a811610074578063cff0ab9611610059578063cff0ab961461044e578063e965084c146104ef578063e9e05c421461057b57600080fd5b8063b69ef8a81461040b578063c0c53b8b1461042e57600080fd5b80639bf62d82116100a55780639bf62d8214610375578063a14238e7146103a2578063a35d99df146103d257600080fd5b80638c3152e9146103285780639b5f694a1461034857600080fd5b806354fd4d50116101175780636dbffb78116100fc5780636dbffb78146102e857806371cfaa3f146103085780638b4c40b01461018857600080fd5b806354fd4d501461026d5780635c975abb146102c357600080fd5b806335e80ab31161014857806335e80ab314610206578063452a9320146102385780634870496f1461024d57600080fd5b8063149f2f221461018f57806333d7e2bd146101af57600080fd5b3661018a576101883334620186a0600060405180602001604052806000815250610589565b005b600080fd5b34801561019b57600080fd5b506101886101aa366004614ba1565b61062e565b3480156101bb57600080fd5b506037546101dc9073ffffffffffffffffffffffffffffffffffffffff1681565b60405173ffffffffffffffffffffffffffffffffffffffff90911681526020015b60405180910390f35b34801561021257600080fd5b506035546101dc90610100900473ffffffffffffffffffffffffffffffffffffffff1681565b34801561024457600080fd5b506101dc61086f565b34801561025957600080fd5b50610188610268366004614cd5565b610907565b34801561027957600080fd5b506102b66040518060400160405280600581526020017f322e382e3000000000000000000000000000000000000000000000000000000081525081565b6040516101fd9190614e27565b3480156102cf57600080fd5b506102d8610eb4565b60405190151581526020016101fd565b3480156102f457600080fd5b506102d8610303366004614e3a565b610f47565b34801561031457600080fd5b50610188610323366004614e62565b611002565b34801561033457600080fd5b50610188610343366004614ea8565b6111c4565b34801561035457600080fd5b506036546101dc9073ffffffffffffffffffffffffffffffffffffffff1681565b34801561038157600080fd5b506032546101dc9073ffffffffffffffffffffffffffffffffffffffff1681565b3480156103ae57600080fd5b506102d86103bd366004614e3a565b60336020526000908152604090205460ff1681565b3480156103de57600080fd5b506103f26103ed366004614ee5565b611c46565b60405167ffffffffffffffff90911681526020016101fd565b34801561041757600080fd5b50610420611c5f565b6040519081526020016101fd565b34801561043a57600080fd5b50610188610449366004614f00565b611cb9565b34801561045a57600080fd5b506001546104b6906fffffffffffffffffffffffffffffffff81169067ffffffffffffffff7001000000000000000000000000000000008204811691780100000000000000000000000000000000000000000000000090041683565b604080516fffffffffffffffffffffffffffffffff909416845267ffffffffffffffff92831660208501529116908201526060016101fd565b3480156104fb57600080fd5b5061054d61050a366004614e3a565b603460205260009081526040902080546001909101546fffffffffffffffffffffffffffffffff8082169170010000000000000000000000000000000090041683565b604080519384526fffffffffffffffffffffffffffffffff92831660208501529116908201526060016101fd565b610188610589366004614f4b565b8260005a90506000610599611f23565b50905073ffffffffffffffffffffffffffffffffffffffff811673eeeeeeeeeeeeeeeeeeeeeeeeeeeeeeeeeeeeeeee148015906105d557503415155b1561060c576040517ff2365b5b00000000000000000000000000000000000000000000000000000000815260040160405180910390fd5b61061a883489898989611fc0565b50610625828261216c565b50505050505050565b8260005a9050600061063e611f23565b5090507fffffffffffffffffffffffff111111111111111111111111111111111111111273ffffffffffffffffffffffffffffffffffffffff8216016106b0576040517f0eaf3c0f00000000000000000000000000000000000000000000000000000000815260040160405180910390fd5b87603d60008282546106c29190614ff7565b90915550506040517f70a0823100000000000000000000000000000000000000000000000000000000815230600482015260009073ffffffffffffffffffffffffffffffffffffffff8316906370a0823190602401602060405180830381865afa158015610734573d6000803e3d6000fd5b505050506040513d601f19601f82011682018060405250810190610758919061500f565b905061077c73ffffffffffffffffffffffffffffffffffffffff831633308c612439565b6107868982614ff7565b6040517f70a0823100000000000000000000000000000000000000000000000000000000815230600482015273ffffffffffffffffffffffffffffffffffffffff8416906370a0823190602401602060405180830381865afa1580156107f0573d6000803e3d6000fd5b505050506040513d601f19601f82011682018060405250810190610814919061500f565b1461084b576040517f90b8ec1800000000000000000000000000000000000000000000000000000000815260040160405180910390fd5b6108598a8a8a8a8a8a611fc0565b5050610865828261216c565b5050505050505050565b6000603560019054906101000a900473ffffffffffffffffffffffffffffffffffffffff1673ffffffffffffffffffffffffffffffffffffffff1663452a93206040518163ffffffff1660e01b8152600401602060405180830381865afa1580156108de573d6000803e3d6000fd5b505050506040513d601f19601f820116820180604052508101906109029190615028565b905090565b61090f610eb4565b15610946576040517ff480973e00000000000000000000000000000000000000000000000000000000815260040160405180910390fd5b3073ffffffffffffffffffffffffffffffffffffffff16856040015173ffffffffffffffffffffffffffffffffffffffff16036109af576040517f13496fda00000000000000000000000000000000000000000000000000000000815260040160405180910390fd5b6036546040517fa25ae5570000000000000000000000000000000000000000000000000000000081526004810186905260009173ffffffffffffffffffffffffffffffffffffffff169063a25ae55790602401606060405180830381865afa158015610a1f573d6000803e3d6000fd5b505050506040513d601f19601f82011682018060405250810190610a439190615065565b519050610a5d610a58368690038601866150ca565b612515565b8114610af0576040517f08c379a000000000000000000000000000000000000000000000000000000000815260206004820152602960248201527f4f7074696d69736d506f7274616c3a20696e76616c6964206f7574707574207260448201527f6f6f742070726f6f66000000000000000000000000000000000000000000000060648201526084015b60405180910390fd5b6000610afb87612571565b6000818152603460209081526040918290208251606081018452815481526001909101546fffffffffffffffffffffffffffffffff8082169383018490527001000000000000000000000000000000009091041692810192909252919250901580610c115750805160365460408084015190517fa25ae5570000000000000000000000000000000000000000000000000000000081526fffffffffffffffffffffffffffffffff909116600482015273ffffffffffffffffffffffffffffffffffffffff9091169063a25ae55790602401606060405180830381865afa158015610be9573d6000803e3d6000fd5b505050506040513d601f19601f82011682018060405250810190610c0d9190615065565b5114155b610c9d576040517f08c379a000000000000000000000000000000000000000000000000000000000815260206004820152603760248201527f4f7074696d69736d506f7274616c3a207769746864726177616c20686173682060448201527f68617320616c7265616479206265656e2070726f76656e0000000000000000006064820152608401610ae7565b60408051602081018490526000918101829052606001604080517fffffffffffffffffffffffffffffffffffffffffffffffffffffffffffffffe081840301815282825280516020918201209083018190529250610d669101604080517fffffffffffffffffffffffffffffffffffffffffffffffffffffffffffffffe0818403018152828201909152600182527f0100000000000000000000000000000000000000000000000000000000000000602083015290610d5c888a615130565b8a604001356125a1565b610df2576040517f08c379a000000000000000000000000000000000000000000000000000000000815260206004820152603260248201527f4f7074696d69736d506f7274616c3a20696e76616c696420776974686472617760448201527f616c20696e636c7573696f6e2070726f6f6600000000000000000000000000006064820152608401610ae7565b604080516060810182528581526fffffffffffffffffffffffffffffffff42811660208084019182528c831684860190815260008981526034835286812095518655925190518416700100000000000000000000000000000000029316929092176001909301929092558b830151908c0151925173ffffffffffffffffffffffffffffffffffffffff918216939091169186917f67a6208cfcc0801d50f6cbe764733f4fddf66ac0b04442061a8a8c0cb6b63f629190a4505050505050505050565b6000603560019054906101000a900473ffffffffffffffffffffffffffffffffffffffff1673ffffffffffffffffffffffffffffffffffffffff16635c975abb6040518163ffffffff1660e01b8152600401602060405180830381865afa158015610f23573d6000803e3d6000fd5b505050506040513d601f19601f8201168201806040525081019061090291906151b4565b6036546040517fa25ae55700000000000000000000000000000000000000000000000000000000815260048101839052600091610ffc9173ffffffffffffffffffffffffffffffffffffffff9091169063a25ae55790602401606060405180830381865afa158015610fbd573d6000803e3d6000fd5b505050506040513d601f19601f82011682018060405250810190610fe19190615065565b602001516fffffffffffffffffffffffffffffffff166125c5565b92915050565b60375473ffffffffffffffffffffffffffffffffffffffff163314611053576040517f82b4290000000000000000000000000000000000000000000000000000000000815260040160405180910390fd5b61105f62030d4061266b565b60405173ffffffffffffffffffffffffffffffffffffffff8516602482015260ff8416604482015260648101839052608481018290526000907342000000000000000000000000000000000000159073deaddeaddeaddeaddeaddeaddeaddeaddead0001907fb3813568d9991fc951961fcb4c784893574240a28925604d09fc577c55bb7c32908490819062030d4090829060a401604080517fffffffffffffffffffffffffffffffffffffffffffffffffffffffffffffffe0818403018152918152602080830180517bffffffffffffffffffffffffffffffffffffffffffffffffffffffff167f71cfaa3f00000000000000000000000000000000000000000000000000000000179052905161117c969594939291016151d1565b604080517fffffffffffffffffffffffffffffffffffffffffffffffffffffffffffffffe0818403018152908290526111b491614e27565b60405180910390a450505050565b565b6111cc610eb4565b15611203576040517ff480973e00000000000000000000000000000000000000000000000000000000815260040160405180910390fd5b60325473ffffffffffffffffffffffffffffffffffffffff1661dead14611256576040517f9396d15600000000000000000000000000000000000000000000000000000000815260040160405180910390fd5b600061126182612571565b60008181526034602090815260408083208151606081018352815481526001909101546fffffffffffffffffffffffffffffffff8082169483018590527001000000000000000000000000000000009091041691810191909152929350900361134c576040517f08c379a000000000000000000000000000000000000000000000000000000000815260206004820152603260248201527f4f7074696d69736d506f7274616c3a207769746864726177616c20686173206e60448201527f6f74206265656e2070726f76656e2079657400000000000000000000000000006064820152608401610ae7565b603660009054906101000a900473ffffffffffffffffffffffffffffffffffffffff1673ffffffffffffffffffffffffffffffffffffffff1663887862726040518163ffffffff1660e01b8152600401602060405180830381865afa1580156113b9573d6000803e3d6000fd5b505050506040513d601f19601f820116820180604052508101906113dd919061500f565b81602001516fffffffffffffffffffffffffffffffff1610156114a8576040517f08c379a000000000000000000000000000000000000000000000000000000000815260206004820152604b60248201527f4f7074696d69736d506f7274616c3a207769746864726177616c2074696d657360448201527f74616d70206c657373207468616e204c32204f7261636c65207374617274696e60648201527f672074696d657374616d70000000000000000000000000000000000000000000608482015260a401610ae7565b6114c781602001516fffffffffffffffffffffffffffffffff166125c5565b611579576040517f08c379a000000000000000000000000000000000000000000000000000000000815260206004820152604560248201527f4f7074696d69736d506f7274616c3a2070726f76656e2077697468647261776160448201527f6c2066696e616c697a6174696f6e20706572696f6420686173206e6f7420656c60648201527f6170736564000000000000000000000000000000000000000000000000000000608482015260a401610ae7565b60365460408281015190517fa25ae5570000000000000000000000000000000000000000000000000000000081526fffffffffffffffffffffffffffffffff909116600482015260009173ffffffffffffffffffffffffffffffffffffffff169063a25ae55790602401606060405180830381865afa158015611600573d6000803e3d6000fd5b505050506040513d601f19601f820116820180604052508101906116249190615065565b82518151919250146116de576040517f08c379a000000000000000000000000000000000000000000000000000000000815260206004820152604960248201527f4f7074696d69736d506f7274616c3a206f757470757420726f6f742070726f7660448201527f656e206973206e6f74207468652073616d652061732063757272656e74206f7560648201527f7470757420726f6f740000000000000000000000000000000000000000000000608482015260a401610ae7565b6116fd81602001516fffffffffffffffffffffffffffffffff166125c5565b6117af576040517f08c379a000000000000000000000000000000000000000000000000000000000815260206004820152604360248201527f4f7074696d69736d506f7274616c3a206f75747075742070726f706f73616c2060448201527f66696e616c697a6174696f6e20706572696f6420686173206e6f7420656c617060648201527f7365640000000000000000000000000000000000000000000000000000000000608482015260a401610ae7565b60008381526033602052604090205460ff161561184e576040517f08c379a000000000000000000000000000000000000000000000000000000000815260206004820152603560248201527f4f7074696d69736d506f7274616c3a207769746864726177616c20686173206160448201527f6c7265616479206265656e2066696e616c697a656400000000000000000000006064820152608401610ae7565b6000838152603360209081526040822080547fffffffffffffffffffffffffffffffffffffffffffffffffffffffffffffff001660011790558501516032805473ffffffffffffffffffffffffffffffffffffffff9092167fffffffffffffffffffffffff0000000000000000000000000000000000000000909216919091179055806118d9611f23565b5090507fffffffffffffffffffffffff111111111111111111111111111111111111111273ffffffffffffffffffffffffffffffffffffffff82160161193c576119358660400151876080015188606001518960a001516126cd565b9150611b8f565b8073ffffffffffffffffffffffffffffffffffffffff16866040015173ffffffffffffffffffffffffffffffffffffffff16036119a5576040517f13496fda00000000000000000000000000000000000000000000000000000000815260040160405180910390fd5b606086015115611b66578560600151603d60008282546119c59190615236565b90915550506040517f70a0823100000000000000000000000000000000000000000000000000000000815230600482015260009073ffffffffffffffffffffffffffffffffffffffff8316906370a0823190602401602060405180830381865afa158015611a37573d6000803e3d6000fd5b505050506040513d601f19601f82011682018060405250810190611a5b919061500f565b9050611a90876040015188606001518473ffffffffffffffffffffffffffffffffffffffff1661272b9092919063ffffffff16565b6060870151611a9f9082615236565b6040517f70a0823100000000000000000000000000000000000000000000000000000000815230600482015273ffffffffffffffffffffffffffffffffffffffff8416906370a0823190602401602060405180830381865afa158015611b09573d6000803e3d6000fd5b505050506040513d601f19601f82011682018060405250810190611b2d919061500f565b14611b64576040517f90b8ec1800000000000000000000000000000000000000000000000000000000815260040160405180910390fd5b505b60a08601515115611b8a576119358660400151876080015160008960a001516126cd565b600191505b603280547fffffffffffffffffffffffff00000000000000000000000000000000000000001661dead17905560405185907fdb5c7652857aa163daadd670e116628fb42e869d8ac4251ef8971d9e5727df1b90611bf190851515815260200190565b60405180910390a281158015611c075750326001145b15611c3e576040517feeae4ed300000000000000000000000000000000000000000000000000000000815260040160405180910390fd5b505050505050565b6000611c5382601061524d565b610ffc9061520861527d565b600080611c6a611f23565b5090507fffffffffffffffffffffffff111111111111111111111111111111111111111273ffffffffffffffffffffffffffffffffffffffff821601611cb1574791505090565b5050603d5490565b600054610100900460ff1615808015611cd95750600054600160ff909116105b80611cf35750303b158015611cf3575060005460ff166001145b611d7f576040517f08c379a000000000000000000000000000000000000000000000000000000000815260206004820152602e60248201527f496e697469616c697a61626c653a20636f6e747261637420697320616c72656160448201527f647920696e697469616c697a65640000000000000000000000000000000000006064820152608401610ae7565b600080547fffffffffffffffffffffffffffffffffffffffffffffffffffffffffffffff001660011790558015611ddd57600080547fffffffffffffffffffffffffffffffffffffffffffffffffffffffffffff00ff166101001790555b603680547fffffffffffffffffffffffff000000000000000000000000000000000000000090811673ffffffffffffffffffffffffffffffffffffffff8781169190911790925560378054909116858316179055603580547fffffffffffffffffffffff0000000000000000000000000000000000000000ff166101008584160217905560325416611e9657603280547fffffffffffffffffffffffff00000000000000000000000000000000000000001661dead1790555b611e9e612786565b8015611f0157600080547fffffffffffffffffffffffffffffffffffffffffffffffffffffffffffff00ff169055604051600181527f7f26b83ff96e1f2b6a682f133852f6798a09c465da95921460cefb38474024989060200160405180910390a15b50505050565b73ffffffffffffffffffffffffffffffffffffffff163b151590565b603754604080517f4397dfef0000000000000000000000000000000000000000000000000000000081528151600093849373ffffffffffffffffffffffffffffffffffffffff90911692634397dfef92600480830193928290030181865afa158015611f93573d6000803e3d6000fd5b505050506040513d601f19601f82011682018060405250810190611fb791906152a9565b90939092509050565b818015611fe2575073ffffffffffffffffffffffffffffffffffffffff861615155b15612019576040517f13496fda00000000000000000000000000000000000000000000000000000000815260040160405180910390fd5b6120238151611c46565b67ffffffffffffffff168367ffffffffffffffff161015612070576040517f4929b80800000000000000000000000000000000000000000000000000000000815260040160405180910390fd5b6201d4c0815111156120ae576040517f73052b0f00000000000000000000000000000000000000000000000000000000815260040160405180910390fd5b333281146120cf575033731111000000000000000000000000000000001111015b600086868686866040516020016120ea9594939291906151d1565b604051602081830303815290604052905060008873ffffffffffffffffffffffffffffffffffffffff168373ffffffffffffffffffffffffffffffffffffffff167fb3813568d9991fc951961fcb4c784893574240a28925604d09fc577c55bb7c328460405161215a9190614e27565b60405180910390a45050505050505050565b6001546000906121a2907801000000000000000000000000000000000000000000000000900467ffffffffffffffff1643615236565b905060006121ae612899565b90506000816020015160ff16826000015163ffffffff166121cf9190615312565b9050821561230657600154600090612206908390700100000000000000000000000000000000900467ffffffffffffffff1661537a565b90506000836040015160ff168361221d91906153ee565b60015461223d9084906fffffffffffffffffffffffffffffffff166153ee565b6122479190615312565b600154909150600090612298906122719084906fffffffffffffffffffffffffffffffff166154aa565b866060015163ffffffff168760a001516fffffffffffffffffffffffffffffffff1661295a565b905060018611156122c7576122c461227182876040015160ff1660018a6122bf9190615236565b612979565b90505b6fffffffffffffffffffffffffffffffff16780100000000000000000000000000000000000000000000000067ffffffffffffffff4316021760015550505b60018054869190601090612339908490700100000000000000000000000000000000900467ffffffffffffffff1661527d565b92506101000a81548167ffffffffffffffff021916908367ffffffffffffffff160217905550816000015163ffffffff16600160000160109054906101000a900467ffffffffffffffff1667ffffffffffffffff1613156123c6576040517f77ebef4d00000000000000000000000000000000000000000000000000000000815260040160405180910390fd5b6001546000906123f2906fffffffffffffffffffffffffffffffff1667ffffffffffffffff881661551e565b9050600061240448633b9aca006129ce565b61240e908361555b565b905060005a61241d9088615236565b905080821115610865576108656124348284615236565b6129e5565b60405173ffffffffffffffffffffffffffffffffffffffff80851660248301528316604482015260648101829052611f019085907f23b872dd00000000000000000000000000000000000000000000000000000000906084015b604080517fffffffffffffffffffffffffffffffffffffffffffffffffffffffffffffffe08184030181529190526020810180517bffffffffffffffffffffffffffffffffffffffffffffffffffffffff167fffffffff0000000000000000000000000000000000000000000000000000000090931692909217909152612a0e565b60008160000151826020015183604001518460600151604051602001612554949392919093845260208401929092526040830152606082015260800190565b604051602081830303815290604052805190602001209050919050565b80516020808301516040808501516060860151608087015160a0880151935160009761255497909695910161556f565b6000806125ad86612b1a565b90506125bb81868686612b4c565b9695505050505050565b603654604080517ff4daa291000000000000000000000000000000000000000000000000000000008152905160009273ffffffffffffffffffffffffffffffffffffffff169163f4daa2919160048083019260209291908290030181865afa158015612635573d6000803e3d6000fd5b505050506040513d601f19601f82011682018060405250810190612659919061500f565b6126639083614ff7565b421192915050565b6001805463ffffffff831691906010906126a4908490700100000000000000000000000000000000900467ffffffffffffffff1661527d565b92506101000a81548167ffffffffffffffff021916908367ffffffffffffffff16021790555050565b60008060006126dd866000612b7c565b905080612713576308c379a06000526020805278185361666543616c6c3a204e6f7420656e6f756768206761736058526064601cfd5b600080855160208701888b5af1979650505050505050565b60405173ffffffffffffffffffffffffffffffffffffffff83166024820152604481018290526127819084907fa9059cbb0000000000000000000000000000000000000000000000000000000090606401612493565b505050565b600054610100900460ff1661281d576040517f08c379a000000000000000000000000000000000000000000000000000000000815260206004820152602b60248201527f496e697469616c697a61626c653a20636f6e7472616374206973206e6f74206960448201527f6e697469616c697a696e670000000000000000000000000000000000000000006064820152608401610ae7565b6001547801000000000000000000000000000000000000000000000000900467ffffffffffffffff166000036111c25760408051606081018252633b9aca00808252600060208301524367ffffffffffffffff169190920181905278010000000000000000000000000000000000000000000000000217600155565b6040805160c08082018352600080835260208301819052828401819052606083018190526080830181905260a083015260375483517fcc731b020000000000000000000000000000000000000000000000000000000081529351929373ffffffffffffffffffffffffffffffffffffffff9091169263cc731b02926004808401939192918290030181865afa158015612936573d6000803e3d6000fd5b505050506040513d601f19601f8201168201806040525081019061090291906155da565b600061296f6129698585612b9a565b83612baa565b90505b9392505050565b6000670de0b6b3a76400006129ba6129918583615312565b6129a390670de0b6b3a764000061537a565b6129b585670de0b6b3a76400006153ee565b612bb9565b6129c490866153ee565b61296f9190615312565b6000818310156129de5781612972565b5090919050565b6000805a90505b825a6129f89083615236565b101561278157612a078261567d565b91506129ec565b6000612a70826040518060400160405280602081526020017f5361666545524332303a206c6f772d6c6576656c2063616c6c206661696c65648152508573ffffffffffffffffffffffffffffffffffffffff16612bea9092919063ffffffff16565b8051909150156127815780806020019051810190612a8e91906151b4565b612781576040517f08c379a000000000000000000000000000000000000000000000000000000000815260206004820152602a60248201527f5361666545524332303a204552433230206f7065726174696f6e20646964206e60448201527f6f742073756363656564000000000000000000000000000000000000000000006064820152608401610ae7565b60608180519060200120604051602001612b3691815260200190565b6040516020818303038152906040529050919050565b6000612b7384612b5d878686612bf9565b8051602091820120825192909101919091201490565b95945050505050565b600080603f83619c4001026040850201603f5a021015949350505050565b6000818312156129de5781612972565b60008183126129de5781612972565b6000612972670de0b6b3a764000083612bd186613677565b612bdb91906153ee565b612be59190615312565b6138bb565b606061296f8484600085613afa565b60606000845111612c66576040517f08c379a000000000000000000000000000000000000000000000000000000000815260206004820152601560248201527f4d65726b6c65547269653a20656d707479206b657900000000000000000000006044820152606401610ae7565b6000612c7184613c90565b90506000612c7e86613d7c565b9050600084604051602001612c9591815260200190565b60405160208183030381529060405290506000805b84518110156135ee576000858281518110612cc757612cc76156b5565b602002602001015190508451831115612d62576040517f08c379a000000000000000000000000000000000000000000000000000000000815260206004820152602e60248201527f4d65726b6c65547269653a206b657920696e646578206578636565647320746f60448201527f74616c206b6579206c656e6774680000000000000000000000000000000000006064820152608401610ae7565b82600003612e1b5780518051602091820120604051612db092612d8a92910190815260200190565b604051602081830303815290604052858051602091820120825192909101919091201490565b612e16576040517f08c379a000000000000000000000000000000000000000000000000000000000815260206004820152601d60248201527f4d65726b6c65547269653a20696e76616c696420726f6f7420686173680000006044820152606401610ae7565b612f72565b805151602011612ed15780518051602091820120604051612e4592612d8a92910190815260200190565b612e16576040517f08c379a000000000000000000000000000000000000000000000000000000000815260206004820152602760248201527f4d65726b6c65547269653a20696e76616c6964206c6172676520696e7465726e60448201527f616c2068617368000000000000000000000000000000000000000000000000006064820152608401610ae7565b805184516020808701919091208251919092012014612f72576040517f08c379a000000000000000000000000000000000000000000000000000000000815260206004820152602660248201527f4d65726b6c65547269653a20696e76616c696420696e7465726e616c206e6f6460448201527f65206861736800000000000000000000000000000000000000000000000000006064820152608401610ae7565b612f7e60106001614ff7565b8160200151510361315a57845183036130f257612fb88160200151601081518110612fab57612fab6156b5565b6020026020010151613ddf565b9650600087511161304b576040517f08c379a000000000000000000000000000000000000000000000000000000000815260206004820152603b60248201527f4d65726b6c65547269653a2076616c7565206c656e677468206d75737420626560448201527f2067726561746572207468616e207a65726f20286272616e63682900000000006064820152608401610ae7565b600186516130599190615236565b82146130e7576040517f08c379a000000000000000000000000000000000000000000000000000000000815260206004820152603a60248201527f4d65726b6c65547269653a2076616c7565206e6f6465206d757374206265206c60448201527f617374206e6f646520696e2070726f6f6620286272616e6368290000000000006064820152608401610ae7565b505050505050612972565b6000858481518110613106576131066156b5565b602001015160f81c60f81b60f81c9050600082602001518260ff1681518110613131576131316156b5565b6020026020010151905061314481613e93565b9550613151600186614ff7565b945050506135db565b60028160200151510361355357600061317282613eb8565b9050600081600081518110613189576131896156b5565b016020015160f81c905060006131a06002836156e4565b6131ab906002615706565b905060006131bc848360ff16613edc565b905060006131ca8a89613edc565b905060006131d88383613f12565b90508083511461326a576040517f08c379a000000000000000000000000000000000000000000000000000000000815260206004820152603a60248201527f4d65726b6c65547269653a20706174682072656d61696e646572206d7573742060448201527f736861726520616c6c206e6962626c65732077697468206b65790000000000006064820152608401610ae7565b60ff85166002148061327f575060ff85166003145b1561346e5780825114613314576040517f08c379a000000000000000000000000000000000000000000000000000000000815260206004820152603d60248201527f4d65726b6c65547269653a206b65792072656d61696e646572206d757374206260448201527f65206964656e746963616c20746f20706174682072656d61696e6465720000006064820152608401610ae7565b61332e8760200151600181518110612fab57612fab6156b5565b9c5060008d51116133c1576040517f08c379a000000000000000000000000000000000000000000000000000000000815260206004820152603960248201527f4d65726b6c65547269653a2076616c7565206c656e677468206d75737420626560448201527f2067726561746572207468616e207a65726f20286c65616629000000000000006064820152608401610ae7565b60018c516133cf9190615236565b881461345d576040517f08c379a000000000000000000000000000000000000000000000000000000000815260206004820152603860248201527f4d65726b6c65547269653a2076616c7565206e6f6465206d757374206265206c60448201527f617374206e6f646520696e2070726f6f6620286c6561662900000000000000006064820152608401610ae7565b505050505050505050505050612972565b60ff85161580613481575060ff85166001145b156134c0576134ad87602001516001815181106134a0576134a06156b5565b6020026020010151613e93565b99506134b9818a614ff7565b9850613548565b6040517f08c379a000000000000000000000000000000000000000000000000000000000815260206004820152603260248201527f4d65726b6c65547269653a2072656365697665642061206e6f6465207769746860448201527f20616e20756e6b6e6f776e2070726566697800000000000000000000000000006064820152608401610ae7565b5050505050506135db565b6040517f08c379a000000000000000000000000000000000000000000000000000000000815260206004820152602860248201527f4d65726b6c65547269653a20726563656976656420616e20756e70617273656160448201527f626c65206e6f64650000000000000000000000000000000000000000000000006064820152608401610ae7565b50806135e68161567d565b915050612caa565b506040517f08c379a000000000000000000000000000000000000000000000000000000000815260206004820152602560248201527f4d65726b6c65547269653a2072616e206f7574206f662070726f6f6620656c6560448201527f6d656e74730000000000000000000000000000000000000000000000000000006064820152608401610ae7565b60008082136136e2576040517f08c379a000000000000000000000000000000000000000000000000000000000815260206004820152600960248201527f554e444546494e454400000000000000000000000000000000000000000000006044820152606401610ae7565b600060606136ef84613fc6565b03609f8181039490941b90931c6c465772b2bbbb5f824b15207a3081018102606090811d6d0388eaa27412d5aca026815d636e018202811d6d0df99ac502031bf953eff472fdcc018202811d6d13cdffb29d51d99322bdff5f2211018202811d6d0a0f742023def783a307a986912e018202811d6d01920d8043ca89b5239253284e42018202811d6c0b7a86d7375468fac667a0a527016c29508e458543d8aa4df2abee7883018302821d6d0139601a2efabe717e604cbb4894018302821d6d02247f7a7b6594320649aa03aba1018302821d7fffffffffffffffffffffffffffffffffffffff73c0c716a594e00d54e3c4cbc9018302821d7ffffffffffffffffffffffffffffffffffffffdc7b88c420e53a9890533129f6f01830290911d7fffffffffffffffffffffffffffffffffffffff465fda27eb4d63ded474e5f832019091027ffffffffffffffff5f6af8f7b3396644f18e157960000000000000000000000000105711340daa0d5f769dba1915cef59f0815a5506027d0267a36c0c95b3975ab3ee5b203a7614a3f75373f047d803ae7b6687f2b393909302929092017d57115e47018c7177eebf7cd370a3356a1b7863008a5ae8028c72b88642840160ae1d92915050565b60007ffffffffffffffffffffffffffffffffffffffffffffffffdb731c958f34d94c182136138ec57506000919050565b680755bf798b4a1bf1e5821261395e576040517f08c379a000000000000000000000000000000000000000000000000000000000815260206004820152600c60248201527f4558505f4f564552464c4f5700000000000000000000000000000000000000006044820152606401610ae7565b6503782dace9d9604e83901b059150600060606bb17217f7d1cf79abc9e3b39884821b056b80000000000000000000000001901d6bb17217f7d1cf79abc9e3b39881029093037fffffffffffffffffffffffffffffffffffffffdbf3ccf1604d263450f02a550481018102606090811d6d0277594991cfc85f6e2461837cd9018202811d7fffffffffffffffffffffffffffffffffffffe5adedaa1cb095af9e4da10e363c018202811d6db1bbb201f443cf962f1a1d3db4a5018202811d7ffffffffffffffffffffffffffffffffffffd38dc772608b0ae56cce01296c0eb018202811d6e05180bb14799ab47a8a8cb2a527d57016d02d16720577bd19bf614176fe9ea6c10fe68e7fd37d0007b713f765084018402831d9081019084017ffffffffffffffffffffffffffffffffffffffe2c69812cf03b0763fd454a8f7e010290911d6e0587f503bb6ea29d25fcb7401964500190910279d835ebba824c98fb31b83b2ca45c000000000000000000000000010574029d9dc38563c32e5c2f6dc192ee70ef65f9978af30260c3939093039290921c92915050565b606082471015613b8c576040517f08c379a000000000000000000000000000000000000000000000000000000000815260206004820152602660248201527f416464726573733a20696e73756666696369656e742062616c616e636520666f60448201527f722063616c6c00000000000000000000000000000000000000000000000000006064820152608401610ae7565b73ffffffffffffffffffffffffffffffffffffffff85163b613c0a576040517f08c379a000000000000000000000000000000000000000000000000000000000815260206004820152601d60248201527f416464726573733a2063616c6c20746f206e6f6e2d636f6e74726163740000006044820152606401610ae7565b6000808673ffffffffffffffffffffffffffffffffffffffff168587604051613c339190615729565b60006040518083038185875af1925050503d8060008114613c70576040519150601f19603f3d011682016040523d82523d6000602084013e613c75565b606091505b5091509150613c8582828661409c565b979650505050505050565b80516060908067ffffffffffffffff811115613cae57613cae614a95565b604051908082528060200260200182016040528015613cf357816020015b6040805180820190915260608082526020820152815260200190600190039081613ccc5790505b50915060005b81811015613d75576040518060400160405280858381518110613d1e57613d1e6156b5565b60200260200101518152602001613d4d868481518110613d4057613d406156b5565b60200260200101516140ef565b815250838281518110613d6257613d626156b5565b6020908102919091010152600101613cf9565b5050919050565b606080604051905082518060011b603f8101601f1916830160405280835250602084016020830160005b83811015613dd4578060011b82018184015160001a8060041c8253600f811660018301535050600101613da6565b509295945050505050565b60606000806000613def85614102565b919450925090506000816001811115613e0a57613e0a615745565b14613e41576040517f1ff9b2e400000000000000000000000000000000000000000000000000000000815260040160405180910390fd5b613e4b8284614ff7565b855114613e84576040517f5c5537b800000000000000000000000000000000000000000000000000000000815260040160405180910390fd5b612b73856020015184846145a0565b60606020826000015110613eaf57613eaa82613ddf565b610ffc565b610ffc82614634565b6060610ffc613ed78360200151600081518110612fab57612fab6156b5565b613d7c565b606082518210613efb5750604080516020810190915260008152610ffc565b6129728383848651613f0d9190615236565b61464a565b6000808251845110613f25578251613f28565b83515b90505b8082108015613faf5750828281518110613f4757613f476156b5565b602001015160f81c60f81b7effffffffffffffffffffffffffffffffffffffffffffffffffffffffffffff1916848381518110613f8657613f866156b5565b01602001517fff0000000000000000000000000000000000000000000000000000000000000016145b15613fbf57816001019150613f2b565b5092915050565b6000808211614031576040517f08c379a000000000000000000000000000000000000000000000000000000000815260206004820152600960248201527f554e444546494e454400000000000000000000000000000000000000000000006044820152606401610ae7565b5060016fffffffffffffffffffffffffffffffff821160071b82811c67ffffffffffffffff1060061b1782811c63ffffffff1060051b1782811c61ffff1060041b1782811c60ff10600390811b90911783811c600f1060021b1783811c909110821b1791821c111790565b606083156140ab575081612972565b8251156140bb5782518084602001fd5b816040517f08c379a0000000000000000000000000000000000000000000000000000000008152600401610ae79190614e27565b6060610ffc6140fd83614822565b61488f565b60008060008360000151600003614145576040517f5ab458fb00000000000000000000000000000000000000000000000000000000815260040160405180910390fd5b6020840151805160001a607f811161416a576000600160009450945094505050614599565b60b7811161428057600061417f608083615236565b9050808760000151116141be576040517f66c9448500000000000000000000000000000000000000000000000000000000815260040160405180910390fd5b6001838101517fff0000000000000000000000000000000000000000000000000000000000000016908214801561423657507f80000000000000000000000000000000000000000000000000000000000000007fff000000000000000000000000000000000000000000000000000000000000008216105b1561426d576040517fbabb01dd00000000000000000000000000000000000000000000000000000000815260040160405180910390fd5b5060019550935060009250614599915050565b60bf81116143de57600061429560b783615236565b9050808760000151116142d4576040517f66c9448500000000000000000000000000000000000000000000000000000000815260040160405180910390fd5b60018301517fff00000000000000000000000000000000000000000000000000000000000000166000819003614336576040517fbabb01dd00000000000000000000000000000000000000000000000000000000815260040160405180910390fd5b600184015160088302610100031c6037811161437e576040517fbabb01dd00000000000000000000000000000000000000000000000000000000815260040160405180910390fd5b6143888184614ff7565b8951116143c1576040517f66c9448500000000000000000000000000000000000000000000000000000000815260040160405180910390fd5b6143cc836001614ff7565b97509550600094506145999350505050565b60f781116144435760006143f360c083615236565b905080876000015111614432576040517f66c9448500000000000000000000000000000000000000000000000000000000815260040160405180910390fd5b600195509350849250614599915050565b600061445060f783615236565b90508087600001511161448f576040517f66c9448500000000000000000000000000000000000000000000000000000000815260040160405180910390fd5b60018301517fff000000000000000000000000000000000000000000000000000000000000001660008190036144f1576040517fbabb01dd00000000000000000000000000000000000000000000000000000000815260040160405180910390fd5b600184015160088302610100031c60378111614539576040517fbabb01dd00000000000000000000000000000000000000000000000000000000815260040160405180910390fd5b6145438184614ff7565b89511161457c576040517f66c9448500000000000000000000000000000000000000000000000000000000815260040160405180910390fd5b614587836001614ff7565b97509550600194506145999350505050565b9193909250565b60608167ffffffffffffffff8111156145bb576145bb614a95565b6040519080825280601f01601f1916602001820160405280156145e5576020820181803683370190505b50905081156129725760006145fa8486614ff7565b90506020820160005b8481101561461b578281015182820152602001614603565b8481111561462a576000858301525b5050509392505050565b6060610ffc8260200151600084600001516145a0565b60608182601f0110156146b9576040517f08c379a000000000000000000000000000000000000000000000000000000000815260206004820152600e60248201527f736c6963655f6f766572666c6f770000000000000000000000000000000000006044820152606401610ae7565b828284011015614725576040517f08c379a000000000000000000000000000000000000000000000000000000000815260206004820152600e60248201527f736c6963655f6f766572666c6f770000000000000000000000000000000000006044820152606401610ae7565b81830184511015614792576040517f08c379a000000000000000000000000000000000000000000000000000000000815260206004820152601160248201527f736c6963655f6f75744f66426f756e64730000000000000000000000000000006044820152606401610ae7565b6060821580156147b15760405191506000825260208201604052614819565b6040519150601f8416801560200281840101858101878315602002848b0101015b818310156147ea5780518352602092830192016147d2565b5050858452601f017fffffffffffffffffffffffffffffffffffffffffffffffffffffffffffffffe016604052505b50949350505050565b60408051808201909152600080825260208201528151600003614871576040517f5ab458fb00000000000000000000000000000000000000000000000000000000815260040160405180910390fd5b50604080518082019091528151815260209182019181019190915290565b6060600080600061489f85614102565b9194509250905060018160018111156148ba576148ba615745565b146148f1576040517f4b9c6abe00000000000000000000000000000000000000000000000000000000815260040160405180910390fd5b84516148fd8385614ff7565b14614934576040517f5c5537b800000000000000000000000000000000000000000000000000000000815260040160405180910390fd5b604080516020808252610420820190925290816020015b604080518082019091526000808252602082015281526020019060019003908161494b5790505093506000835b8651811015614a39576000806149be6040518060400160405280858c600001516149a29190615236565b8152602001858c602001516149b79190614ff7565b9052614102565b5091509150604051806040016040528083836149da9190614ff7565b8152602001848b602001516149ef9190614ff7565b815250888581518110614a0457614a046156b5565b6020908102919091010152614a1a600185614ff7565b9350614a268183614ff7565b614a309084614ff7565b92505050614978565b50845250919392505050565b73ffffffffffffffffffffffffffffffffffffffff81168114614a6757600080fd5b50565b803567ffffffffffffffff81168114614a8257600080fd5b919050565b8015158114614a6757600080fd5b7f4e487b7100000000000000000000000000000000000000000000000000000000600052604160045260246000fd5b604051601f82017fffffffffffffffffffffffffffffffffffffffffffffffffffffffffffffffe016810167ffffffffffffffff81118282101715614b0b57614b0b614a95565b604052919050565b600082601f830112614b2457600080fd5b813567ffffffffffffffff811115614b3e57614b3e614a95565b614b6f60207fffffffffffffffffffffffffffffffffffffffffffffffffffffffffffffffe0601f84011601614ac4565b818152846020838601011115614b8457600080fd5b816020850160208301376000918101602001919091529392505050565b60008060008060008060c08789031215614bba57600080fd5b8635614bc581614a45565b95506020870135945060408701359350614be160608801614a6a565b92506080870135614bf181614a87565b915060a087013567ffffffffffffffff811115614c0d57600080fd5b614c1989828a01614b13565b9150509295509295509295565b600060c08284031215614c3857600080fd5b60405160c0810167ffffffffffffffff8282108183111715614c5c57614c5c614a95565b816040528293508435835260208501359150614c7782614a45565b81602084015260408501359150614c8d82614a45565b816040840152606085013560608401526080850135608084015260a0850135915080821115614cbb57600080fd5b50614cc885828601614b13565b60a0830152505092915050565b600080600080600085870360e0811215614cee57600080fd5b863567ffffffffffffffff80821115614d0657600080fd5b614d128a838b01614c26565b97506020890135965060807fffffffffffffffffffffffffffffffffffffffffffffffffffffffffffffffc084011215614d4b57600080fd5b60408901955060c0890135925080831115614d6557600080fd5b828901925089601f840112614d7957600080fd5b8235915080821115614d8a57600080fd5b508860208260051b8401011115614da057600080fd5b959894975092955050506020019190565b60005b83811015614dcc578181015183820152602001614db4565b83811115611f015750506000910152565b60008151808452614df5816020860160208601614db1565b601f017fffffffffffffffffffffffffffffffffffffffffffffffffffffffffffffffe0169290920160200192915050565b6020815260006129726020830184614ddd565b600060208284031215614e4c57600080fd5b5035919050565b60ff81168114614a6757600080fd5b60008060008060808587031215614e7857600080fd5b8435614e8381614a45565b93506020850135614e9381614e53565b93969395505050506040820135916060013590565b600060208284031215614eba57600080fd5b813567ffffffffffffffff811115614ed157600080fd5b614edd84828501614c26565b949350505050565b600060208284031215614ef757600080fd5b61297282614a6a565b600080600060608486031215614f1557600080fd5b8335614f2081614a45565b92506020840135614f3081614a45565b91506040840135614f4081614a45565b809150509250925092565b600080600080600060a08688031215614f6357600080fd5b8535614f6e81614a45565b945060208601359350614f8360408701614a6a565b92506060860135614f9381614a87565b9150608086013567ffffffffffffffff811115614faf57600080fd5b614fbb88828901614b13565b9150509295509295909350565b7f4e487b7100000000000000000000000000000000000000000000000000000000600052601160045260246000fd5b6000821982111561500a5761500a614fc8565b500190565b60006020828403121561502157600080fd5b5051919050565b60006020828403121561503a57600080fd5b815161297281614a45565b80516fffffffffffffffffffffffffffffffff81168114614a8257600080fd5b60006060828403121561507757600080fd5b6040516060810181811067ffffffffffffffff8211171561509a5761509a614a95565b604052825181526150ad60208401615045565b60208201526150be60408401615045565b60408201529392505050565b6000608082840312156150dc57600080fd5b6040516080810181811067ffffffffffffffff821117156150ff576150ff614a95565b8060405250823581526020830135602082015260408301356040820152606083013560608201528091505092915050565b600067ffffffffffffffff8084111561514b5761514b614a95565b8360051b602061515c818301614ac4565b86815291850191818101903684111561517457600080fd5b865b848110156151a85780358681111561518e5760008081fd5b61519a36828b01614b13565b845250918301918301615176565b50979650505050505050565b6000602082840312156151c657600080fd5b815161297281614a87565b8581528460208201527fffffffffffffffff0000000000000000000000000000000000000000000000008460c01b16604082015282151560f81b604882015260008251615225816049850160208701614db1565b919091016049019695505050505050565b60008282101561524857615248614fc8565b500390565b600067ffffffffffffffff8083168185168183048111821515161561527457615274614fc8565b02949350505050565b600067ffffffffffffffff8083168185168083038211156152a0576152a0614fc8565b01949350505050565b600080604083850312156152bc57600080fd5b82516152c781614a45565b60208401519092506152d881614e53565b809150509250929050565b7f4e487b7100000000000000000000000000000000000000000000000000000000600052601260045260246000fd5b600082615321576153216152e3565b7fffffffffffffffffffffffffffffffffffffffffffffffffffffffffffffffff83147f80000000000000000000000000000000000000000000000000000000000000008314161561537557615375614fc8565b500590565b6000808312837f8000000000000000000000000000000000000000000000000000000000000000018312811516156153b4576153b4614fc8565b837f7fffffffffffffffffffffffffffffffffffffffffffffffffffffffffffffff0183138116156153e8576153e8614fc8565b50500390565b60007f7fffffffffffffffffffffffffffffffffffffffffffffffffffffffffffffff60008413600084138583048511828216161561542f5761542f614fc8565b7f8000000000000000000000000000000000000000000000000000000000000000600087128682058812818416161561546a5761546a614fc8565b6000871292508782058712848416161561548657615486614fc8565b8785058712818416161561549c5761549c614fc8565b505050929093029392505050565b6000808212827f7fffffffffffffffffffffffffffffffffffffffffffffffffffffffffffffff038413811516156154e4576154e4614fc8565b827f800000000000000000000000000000000000000000000000000000000000000003841281161561551857615518614fc8565b50500190565b6000817fffffffffffffffffffffffffffffffffffffffffffffffffffffffffffffffff048311821515161561555657615556614fc8565b500290565b60008261556a5761556a6152e3565b500490565b868152600073ffffffffffffffffffffffffffffffffffffffff808816602084015280871660408401525084606083015283608083015260c060a08301526155ba60c0830184614ddd565b98975050505050505050565b805163ffffffff81168114614a8257600080fd5b600060c082840312156155ec57600080fd5b60405160c0810181811067ffffffffffffffff8211171561560f5761560f614a95565b60405261561b836155c6565b8152602083015161562b81614e53565b6020820152604083015161563e81614e53565b604082015261564f606084016155c6565b6060820152615660608084016155c6565b608082015261567160a08401615045565b60a08201529392505050565b60007fffffffffffffffffffffffffffffffffffffffffffffffffffffffffffffffff82036156ae576156ae614fc8565b5060010190565b7f4e487b7100000000000000000000000000000000000000000000000000000000600052603260045260246000fd5b600060ff8316806156f7576156f76152e3565b8060ff84160691505092915050565b600060ff821660ff84168082101561572057615720614fc8565b90039392505050565b6000825161573b818460208701614db1565b9190910192915050565b7f4e487b7100000000000000000000000000000000000000000000000000000000600052602160045260246000fdfea164736f6c634300080f000a","linkReferences":{}},"methodIdentifiers":{"balance()":"b69ef8a8","depositERC20Transaction(address,uint256,uint256,uint64,bool,bytes)":"149f2f22","depositTransaction(address,uint256,uint64,bool,bytes)":"e9e05c42","donateETH()":"8b4c40b0","finalizeWithdrawalTransaction((uint256,address,address,uint256,uint256,bytes))":"8c3152e9","finalizedWithdrawals(bytes32)":"a14238e7","guardian()":"452a9320","initialize(address,address,address)":"c0c53b8b","isOutputFinalized(uint256)":"6dbffb78","l2Oracle()":"9b5f694a","l2Sender()":"9bf62d82","minimumGasLimit(uint64)":"a35d99df","params()":"cff0ab96","paused()":"5c975abb","proveWithdrawalTransaction((uint256,address,address,uint256,uint256,bytes),uint256,(bytes32,bytes32,bytes32,bytes32),bytes[])":"4870496f","provenWithdrawals(bytes32)":"e965084c","setGasPayingToken(address,uint8,bytes32,bytes32)":"71cfaa3f","superchainConfig()":"35e80ab3","systemConfig()":"33d7e2bd","version()":"54fd4d50"},"storageLayout":{"storage":[{"astId":43933,"contract":"src/L1/OptimismPortal.sol:OptimismPortal","label":"_initialized","offset":0,"slot":"0","type":"t_uint8"},{"astId":43936,"contract":"src/L1/OptimismPortal.sol:OptimismPortal","label":"_initializing","offset":1,"slot":"0","type":"t_bool"},{"astId":60454,"contract":"src/L1/OptimismPortal.sol:OptimismPortal","label":"params","offset":0,"slot":"1","type":"t_struct(ResourceParams)60437_storage"},{"astId":60459,"contract":"src/L1/OptimismPortal.sol:OptimismPortal","label":"__gap","offset":0,"slot":"2","type":"t_array(t_uint256)48_storage"},{"astId":59442,"contract":"src/L1/OptimismPortal.sol:OptimismPortal","label":"l2Sender","offset":0,"slot":"50","type":"t_address"},{"astId":59447,"contract":"src/L1/OptimismPortal.sol:OptimismPortal","label":"finalizedWithdrawals","offset":0,"slot":"51","type":"t_mapping(t_bytes32,t_bool)"},{"astId":59453,"contract":"src/L1/OptimismPortal.sol:OptimismPortal","label":"provenWithdrawals","offset":0,"slot":"52","type":"t_mapping(t_bytes32,t_struct(ProvenWithdrawal)59427_storage)"},{"astId":59456,"contract":"src/L1/OptimismPortal.sol:OptimismPortal","label":"spacer_53_0_1","offset":0,"slot":"53","type":"t_bool"},{"astId":59460,"contract":"src/L1/OptimismPortal.sol:OptimismPortal","label":"superchainConfig","offset":1,"slot":"53","type":"t_contract(SuperchainConfig)61001"},{"astId":59464,"contract":"src/L1/OptimismPortal.sol:OptimismPortal","label":"l2Oracle","offset":0,"slot":"54","type":"t_contract(L2OutputOracle)59374"},{"astId":59468,"contract":"src/L1/OptimismPortal.sol:OptimismPortal","label":"systemConfig","offset":0,"slot":"55","type":"t_contract(SystemConfig)62075"},{"astId":59471,"contract":"src/L1/OptimismPortal.sol:OptimismPortal","label":"spacer_56_0_20","offset":0,"slot":"56","type":"t_address"},{"astId":59474,"contract":"src/L1/OptimismPortal.sol:OptimismPortal","label":"spacer_57_0_32","offset":0,"slot":"57","type":"t_bytes32"},{"astId":59477,"contract":"src/L1/OptimismPortal.sol:OptimismPortal","label":"spacer_58_0_32","offset":0,"slot":"58","type":"t_bytes32"},{"astId":59480,"contract":"src/L1/OptimismPortal.sol:OptimismPortal","label":"spacer_59_0_32","offset":0,"slot":"59","type":"t_bytes32"},{"astId":59483,"contract":"src/L1/OptimismPortal.sol:OptimismPortal","label":"spacer_60_0_32","offset":0,"slot":"60","type":"t_bytes32"},{"astId":59486,"contract":"src/L1/OptimismPortal.sol:OptimismPortal","label":"_balance","offset":0,"slot":"61","type":"t_uint256"}],"types":{"t_address":{"encoding":"inplace","label":"address","numberOfBytes":"20"},"t_array(t_uint256)48_storage":{"encoding":"inplace","label":"uint256[48]","numberOfBytes":"1536","base":"t_uint256"},"t_bool":{"encoding":"inplace","label":"bool","numberOfBytes":"1"},"t_bytes32":{"encoding":"inplace","label":"bytes32","numberOfBytes":"32"},"t_contract(L2OutputOracle)59374":{"encoding":"inplace","label":"contract L2OutputOracle","numberOfBytes":"20"},"t_contract(SuperchainConfig)61001":{"encoding":"inplace","label":"contract SuperchainConfig","numberOfBytes":"20"},"t_contract(SystemConfig)62075":{"encoding":"inplace","label":"contract SystemConfig","numberOfBytes":"20"},"t_mapping(t_bytes32,t_bool)":{"encoding":"mapping","key":"t_bytes32","label":"mapping(bytes32 => bool)","numberOfBytes":"32","value":"t_bool"},"t_mapping(t_bytes32,t_struct(ProvenWithdrawal)59427_storage)":{"encoding":"mapping","key":"t_bytes32","label":"mapping(bytes32 => struct OptimismPortal.ProvenWithdrawal)","numberOfBytes":"32","value":"t_struct(ProvenWithdrawal)59427_storage"},"t_struct(ProvenWithdrawal)59427_storage":{"encoding":"inplace","label":"struct OptimismPortal.ProvenWithdrawal","numberOfBytes":"64","members":[{"astId":59422,"contract":"src/L1/OptimismPortal.sol:OptimismPortal","label":"outputRoot","offset":0,"slot":"0","type":"t_bytes32"},{"astId":59424,"contract":"src/L1/OptimismPortal.sol:OptimismPortal","label":"timestamp","offset":0,"slot":"1","type":"t_uint128"},{"astId":59426,"contract":"src/L1/OptimismPortal.sol:OptimismPortal","label":"l2OutputIndex","offset":16,"slot":"1","type":"t_uint128"}]},"t_struct(ResourceParams)60437_storage":{"encoding":"inplace","label":"struct ResourceMetering.ResourceParams","numberOfBytes":"32","members":[{"astId":60432,"contract":"src/L1/OptimismPortal.sol:OptimismPortal","label":"prevBaseFee","offset":0,"slot":"0","type":"t_uint128"},{"astId":60434,"contract":"src/L1/OptimismPortal.sol:OptimismPortal","label":"prevBoughtGas","offset":16,"slot":"0","type":"t_uint64"},{"astId":60436,"contract":"src/L1/OptimismPortal.sol:OptimismPortal","label":"prevBlockNum","offset":24,"slot":"0","type":"t_uint64"}]},"t_uint128":{"encoding":"inplace","label":"uint128","numberOfBytes":"16"},"t_uint256":{"encoding":"inplace","label":"uint256","numberOfBytes":"32"},"t_uint64":{"encoding":"inplace","label":"uint64","numberOfBytes":"8"},"t_uint8":{"encoding":"inplace","label":"uint8","numberOfBytes":"1"}}},"userdoc":{"version":1,"kind":"user","methods":{"balance()":{"notice":"Getter for the balance of the contract."},"constructor":{"notice":"Constructs the OptimismPortal contract."},"depositERC20Transaction(address,uint256,uint256,uint64,bool,bytes)":{"notice":"Entrypoint to depositing an ERC20 token as a custom gas token.         This function depends on a well formed ERC20 token. There are only         so many checks that can be done on chain for this so it is assumed         that chain operators will deploy chains with well formed ERC20 tokens."},"depositTransaction(address,uint256,uint64,bool,bytes)":{"notice":"Accepts deposits of ETH and data, and emits a TransactionDeposited event for use in         deriving deposit transactions. Note that if a deposit is made by a contract, its         address will be aliased when retrieved using `tx.origin` or `msg.sender`. Consider         using the CrossDomainMessenger contracts for a simpler developer experience."},"donateETH()":{"notice":"Accepts ETH value without triggering a deposit to L2.         This function mainly exists for the sake of the migration between the legacy         Optimism system and Bedrock."},"finalizeWithdrawalTransaction((uint256,address,address,uint256,uint256,bytes))":{"notice":"Finalizes a withdrawal transaction."},"finalizedWithdrawals(bytes32)":{"notice":"A list of withdrawal hashes which have been successfully finalized."},"guardian()":{"notice":"Getter function for the address of the guardian.         Public getter is legacy and will be removed in the future. Use `SuperchainConfig.guardian()` instead."},"initialize(address,address,address)":{"notice":"Initializer."},"isOutputFinalized(uint256)":{"notice":"Determine if a given output is finalized.         Reverts if the call to l2Oracle.getL2Output reverts.         Returns a boolean otherwise."},"l2Oracle()":{"notice":"Contract of the L2OutputOracle."},"l2Sender()":{"notice":"Address of the L2 account which initiated a withdrawal in this transaction.         If the of this variable is the default L2 sender address, then we are NOT inside of         a call to finalizeWithdrawalTransaction."},"minimumGasLimit(uint64)":{"notice":"Computes the minimum gas limit for a deposit.         The minimum gas limit linearly increases based on the size of the calldata.         This is to prevent users from creating L2 resource usage without paying for it.         This function can be used when interacting with the portal to ensure forwards         compatibility."},"params()":{"notice":"EIP-1559 style gas parameters."},"paused()":{"notice":"Getter for the current paused status."},"proveWithdrawalTransaction((uint256,address,address,uint256,uint256,bytes),uint256,(bytes32,bytes32,bytes32,bytes32),bytes[])":{"notice":"Proves a withdrawal transaction."},"provenWithdrawals(bytes32)":{"notice":"A mapping of withdrawal hashes to `ProvenWithdrawal` data."},"setGasPayingToken(address,uint8,bytes32,bytes32)":{"notice":"Sets the gas paying token for the L2 system. This token is used as the         L2 native asset. Only the SystemConfig contract can call this function."},"superchainConfig()":{"notice":"Contract of the Superchain Config."},"systemConfig()":{"notice":"Contract of the SystemConfig."},"version()":{"notice":"Semantic version."}},"events":{"TransactionDeposited(address,address,uint256,bytes)":{"notice":"Emitted when a transaction is deposited from L1 to L2.         The parameters of this event are read by the rollup node and used to derive deposit         transactions on L2."},"WithdrawalFinalized(bytes32,bool)":{"notice":"Emitted when a withdrawal transaction is finalized."},"WithdrawalProven(bytes32,address,address)":{"notice":"Emitted when a withdrawal transaction is proven."}},"errors":{"BadTarget()":[{"notice":"Error for when a deposit or withdrawal is to a bad target."}],"CallPaused()":[{"notice":"Error for when a method cannot be called when paused. This could be renamed         to `Paused` in the future, but it collides with the `Paused` event."}],"ContentLengthMismatch()":[{"notice":"The length of the content must be greater than the RLP item length"}],"EmptyItem()":[{"notice":"The length of an RLP item must be greater than zero to be decodable"}],"GasEstimation()":[{"notice":"Error for special gas estimation."}],"InvalidDataRemainder()":[{"notice":"The RLP item has an invalid data remainder"}],"InvalidHeader()":[{"notice":"Invalid RLP header for RLP item"}],"LargeCalldata()":[{"notice":"Error for when a deposit has too much calldata."}],"NoValue()":[{"notice":"Error for when a method cannot be called with non zero CALLVALUE."}],"NonReentrant()":[{"notice":"Error for when a method is being reentered."}],"OnlyCustomGasToken()":[{"notice":"Error for when a method is called that only works when using a custom gas token."}],"OutOfGas()":[{"notice":"Error returned when too much gas resource is consumed."}],"SmallGasLimit()":[{"notice":"Error for when a deposit has too small of a gas limit."}],"TransferFailed()":[{"notice":"Error for when a withdrawal transfer fails."}],"Unauthorized()":[{"notice":"Error for an unauthorized CALLER."}],"UnexpectedList()":[{"notice":"Decoded item type for bytes is not a string item"}],"UnexpectedString()":[{"notice":"The decoded item type for list is not a list item"}]},"notice":"The OptimismPortal is a low-level contract responsible for passing messages between L1         and L2. Messages sent directly to the OptimismPortal have no form of replayability.         Users are encouraged to use the L1CrossDomainMessenger for a higher-level interface."},"devdoc":{"version":1,"kind":"dev","methods":{"depositERC20Transaction(address,uint256,uint256,uint64,bool,bytes)":{"params":{"_data":"Data to trigger the recipient with.","_gasLimit":"Amount of L2 gas to purchase by burning gas on L1.","_isCreation":"Whether or not the transaction is a contract creation.","_mint":"Units of ERC20 token to deposit into L2.","_to":"Target address on L2.","_value":"Units of ERC20 token to send on L2 to the recipient."}},"depositTransaction(address,uint256,uint64,bool,bytes)":{"params":{"_data":"Data to trigger the recipient with.","_gasLimit":"Amount of L2 gas to purchase by burning gas on L1.","_isCreation":"Whether or not the transaction is a contract creation.","_to":"Target address on L2.","_value":"ETH value to send to the recipient."}},"finalizeWithdrawalTransaction((uint256,address,address,uint256,uint256,bytes))":{"params":{"_tx":"Withdrawal transaction to finalize."}},"guardian()":{"returns":{"_0":"Address of the guardian."}},"initialize(address,address,address)":{"params":{"_l2Oracle":"Contract of the L2OutputOracle.","_superchainConfig":"Contract of the SuperchainConfig.","_systemConfig":"Contract of the SystemConfig."}},"isOutputFinalized(uint256)":{"params":{"_l2OutputIndex":"Index of the L2 output to check."},"returns":{"_0":"Whether or not the output is finalized."}},"minimumGasLimit(uint64)":{"params":{"_byteCount":"Number of bytes in the calldata."},"returns":{"_0":"The minimum gas limit for a deposit."}},"paused()":{"returns":{"paused_":"Whether or not the contract is paused."}},"proveWithdrawalTransaction((uint256,address,address,uint256,uint256,bytes),uint256,(bytes32,bytes32,bytes32,bytes32),bytes[])":{"params":{"_l2OutputIndex":"L2 output index to prove against.","_outputRootProof":"Inclusion proof of the L2ToL1MessagePasser contract's storage root.","_tx":"Withdrawal transaction to finalize.","_withdrawalProof":"Inclusion proof of the withdrawal in L2ToL1MessagePasser contract."}}},"events":{"TransactionDeposited(address,address,uint256,bytes)":{"params":{"from":"Address that triggered the deposit transaction.","opaqueData":"ABI encoded deposit data to be parsed off-chain.","to":"Address that the deposit transaction is directed to.","version":"Version of this deposit transaction event."}},"WithdrawalFinalized(bytes32,bool)":{"params":{"success":"Whether the withdrawal transaction was successful.","withdrawalHash":"Hash of the withdrawal transaction."}},"WithdrawalProven(bytes32,address,address)":{"params":{"from":"Address that triggered the withdrawal transaction.","to":"Address that the withdrawal transaction is directed to.","withdrawalHash":"Hash of the withdrawal transaction."}}}},"id":68}